{
  "_format": "hh-sol-artifact-1",
  "contractName": "TokenProxyR",
  "sourceName": "contracts/TokenProxyR.sol",
  "abi": [
    {
      "inputs": [
        {
          "internalType": "address",
          "name": "_logic",
          "type": "address"
        },
        {
          "internalType": "bytes",
          "name": "_data",
          "type": "bytes"
        }
      ],
      "stateMutability": "nonpayable",
      "type": "constructor"
    },
    {
      "anonymous": false,
      "inputs": [
        {
          "indexed": false,
          "internalType": "address",
          "name": "previousAdmin",
          "type": "address"
        },
        {
          "indexed": false,
          "internalType": "address",
          "name": "newAdmin",
          "type": "address"
        }
      ],
      "name": "AdminChanged",
      "type": "event"
    },
    {
      "anonymous": false,
      "inputs": [
        {
          "indexed": true,
          "internalType": "address",
          "name": "beacon",
          "type": "address"
        }
      ],
      "name": "BeaconUpgraded",
      "type": "event"
    },
    {
      "anonymous": false,
      "inputs": [
        {
          "indexed": true,
          "internalType": "address",
          "name": "implementation",
          "type": "address"
        }
      ],
      "name": "Upgraded",
      "type": "event"
    },
    {
      "stateMutability": "payable",
      "type": "fallback"
    },
    {
      "inputs": [
        {
          "internalType": "address",
          "name": "implementation",
          "type": "address"
        }
      ],
      "name": "upgradeTo",
      "outputs": [],
      "stateMutability": "nonpayable",
      "type": "function"
    },
    {
      "inputs": [],
      "name": "versionProxy",
      "outputs": [
        {
          "internalType": "uint32",
          "name": "",
          "type": "uint32"
        }
      ],
      "stateMutability": "view",
      "type": "function"
    },
    {
      "stateMutability": "payable",
      "type": "receive"
    }
  ],
  "bytecode": "0x60806040523480156200001157600080fd5b506040516200105e3803806200105e833981810160405281019062000037919062000491565b818160017f360894a13ba1a3210667c828492db98dca3e2076cc3735a920a3ca505d382bbd60001c6200006b9190620006c3565b60001b7f360894a13ba1a3210667c828492db98dca3e2076cc3735a920a3ca505d382bbc60001b14620000c7577f4e487b7100000000000000000000000000000000000000000000000000000000600052600160045260246000fd5b620000db82826000620000e560201b60201c565b50505050620008cf565b620000f6836200012860201b60201c565b600082511180620001045750805b1562000123576200012183836200017f60201b620000d91760201c565b505b505050565b6200013981620001b560201b60201c565b8073ffffffffffffffffffffffffffffffffffffffff167fbc7cd75a20ee27fd9adebab32041f755214dbc6bffa90cc0225b39da2e5c2d3b60405160405180910390a250565b6060620001ad838360405180606001604052806027815260200162001037602791396200028b60201b60201c565b905092915050565b620001cb816200036f60201b620001061760201c565b6200020d576040517f08c379a00000000000000000000000000000000000000000000000000000000081526004016200020490620005ee565b60405180910390fd5b80620002477f360894a13ba1a3210667c828492db98dca3e2076cc3735a920a3ca505d382bbc60001b6200039260201b620001291760201c565b60000160006101000a81548173ffffffffffffffffffffffffffffffffffffffff021916908373ffffffffffffffffffffffffffffffffffffffff16021790555050565b60606200029e846200036f60201b60201c565b620002e0576040517f08c379a0000000000000000000000000000000000000000000000000000000008152600401620002d79062000610565b60405180910390fd5b6000808573ffffffffffffffffffffffffffffffffffffffff16856040516200030a9190620005b1565b600060405180830381855af49150503d806000811462000347576040519150601f19603f3d011682016040523d82523d6000602084013e6200034c565b606091505b5091509150620003648282866200039c60201b60201c565b925050509392505050565b6000808273ffffffffffffffffffffffffffffffffffffffff163b119050919050565b6000819050919050565b60608315620003ae5782905062000401565b600083511115620003c25782518084602001fd5b816040517f08c379a0000000000000000000000000000000000000000000000000000000008152600401620003f89190620005ca565b60405180910390fd5b9392505050565b60006200041f62000419846200065b565b62000632565b9050828152602081018484840111156200043857600080fd5b620004458482856200073c565b509392505050565b6000815190506200045e81620008b5565b92915050565b600082601f8301126200047657600080fd5b81516200048884826020860162000408565b91505092915050565b60008060408385031215620004a557600080fd5b6000620004b5858286016200044d565b925050602083015167ffffffffffffffff811115620004d357600080fd5b620004e18582860162000464565b9150509250929050565b6000620004f88262000691565b620005048185620006a7565b9350620005168185602086016200073c565b80840191505092915050565b60006200052f826200069c565b6200053b8185620006b2565b93506200054d8185602086016200073c565b620005588162000806565b840191505092915050565b600062000572602d83620006b2565b91506200057f8262000817565b604082019050919050565b600062000599602683620006b2565b9150620005a68262000866565b604082019050919050565b6000620005bf8284620004eb565b915081905092915050565b60006020820190508181036000830152620005e6818462000522565b905092915050565b60006020820190508181036000830152620006098162000563565b9050919050565b600060208201905081810360008301526200062b816200058a565b9050919050565b60006200063e62000651565b90506200064c828262000772565b919050565b6000604051905090565b600067ffffffffffffffff821115620006795762000678620007d7565b5b620006848262000806565b9050602081019050919050565b600081519050919050565b600081519050919050565b600081905092915050565b600082825260208201905092915050565b6000620006d08262000732565b9150620006dd8362000732565b925082821015620006f357620006f2620007a8565b5b828203905092915050565b60006200070b8262000712565b9050919050565b600073ffffffffffffffffffffffffffffffffffffffff82169050919050565b6000819050919050565b60005b838110156200075c5780820151818401526020810190506200073f565b838111156200076c576000848401525b50505050565b6200077d8262000806565b810181811067ffffffffffffffff821117156200079f576200079e620007d7565b5b80604052505050565b7f4e487b7100000000000000000000000000000000000000000000000000000000600052601160045260246000fd5b7f4e487b7100000000000000000000000000000000000000000000000000000000600052604160045260246000fd5b6000601f19601f8301169050919050565b7f455243313936373a206e657720696d706c656d656e746174696f6e206973206e60008201527f6f74206120636f6e747261637400000000000000000000000000000000000000602082015250565b7f416464726573733a2064656c65676174652063616c6c20746f206e6f6e2d636f60008201527f6e74726163740000000000000000000000000000000000000000000000000000602082015250565b620008c081620006fe565b8114620008cc57600080fd5b50565b61075880620008df6000396000f3fe60806040526004361061002d5760003560e01c80633659cfe6146100465780635f749f681461006f5761003c565b3661003c5761003a61009a565b005b61004461009a565b005b34801561005257600080fd5b5061006d60048036038101906100689190610412565b6100b4565b005b34801561007b57600080fd5b506100846100c0565b6040516100919190610573565b60405180910390f35b6100a2610133565b6100b26100ad610135565b610144565b565b6100bd8161016a565b50565b60008060009054906101000a900463ffffffff16905090565b60606100fe83836040518060600160405280602781526020016106fc602791396101b9565b905092915050565b6000808273ffffffffffffffffffffffffffffffffffffffff163b119050919050565b6000819050919050565b565b600061013f610286565b905090565b3660008037600080366000845af43d6000803e8060008114610165573d6000f35b3d6000fd5b610173816102dd565b8073ffffffffffffffffffffffffffffffffffffffff167fbc7cd75a20ee27fd9adebab32041f755214dbc6bffa90cc0225b39da2e5c2d3b60405160405180910390a250565b60606101c484610106565b610203576040517f08c379a00000000000000000000000000000000000000000000000000000000081526004016101fa90610553565b60405180910390fd5b6000808573ffffffffffffffffffffffffffffffffffffffff168560405161022b91906104fa565b600060405180830381855af49150503d8060008114610266576040519150601f19603f3d011682016040523d82523d6000602084013e61026b565b606091505b509150915061027b828286610396565b925050509392505050565b60006102b47f360894a13ba1a3210667c828492db98dca3e2076cc3735a920a3ca505d382bbc60001b610129565b60000160009054906101000a900473ffffffffffffffffffffffffffffffffffffffff16905090565b6102e681610106565b610325576040517f08c379a000000000000000000000000000000000000000000000000000000000815260040161031c90610533565b60405180910390fd5b806103527f360894a13ba1a3210667c828492db98dca3e2076cc3735a920a3ca505d382bbc60001b610129565b60000160006101000a81548173ffffffffffffffffffffffffffffffffffffffff021916908373ffffffffffffffffffffffffffffffffffffffff16021790555050565b606083156103a6578290506103f6565b6000835111156103b95782518084602001fd5b816040517f08c379a00000000000000000000000000000000000000000000000000000000081526004016103ed9190610511565b60405180910390fd5b9392505050565b60008135905061040c816106e4565b92915050565b60006020828403121561042457600080fd5b6000610432848285016103fd565b91505092915050565b60006104468261058e565b61045081856105a4565b9350610460818560208601610602565b80840191505092915050565b600061047782610599565b61048181856105af565b9350610491818560208601610602565b61049a81610635565b840191505092915050565b60006104b2602d836105af565b91506104bd82610646565b604082019050919050565b60006104d56026836105af565b91506104e082610695565b604082019050919050565b6104f4816105f2565b82525050565b6000610506828461043b565b915081905092915050565b6000602082019050818103600083015261052b818461046c565b905092915050565b6000602082019050818103600083015261054c816104a5565b9050919050565b6000602082019050818103600083015261056c816104c8565b9050919050565b600060208201905061058860008301846104eb565b92915050565b600081519050919050565b600081519050919050565b600081905092915050565b600082825260208201905092915050565b60006105cb826105d2565b9050919050565b600073ffffffffffffffffffffffffffffffffffffffff82169050919050565b600063ffffffff82169050919050565b60005b83811015610620578082015181840152602081019050610605565b8381111561062f576000848401525b50505050565b6000601f19601f8301169050919050565b7f455243313936373a206e657720696d706c656d656e746174696f6e206973206e60008201527f6f74206120636f6e747261637400000000000000000000000000000000000000602082015250565b7f416464726573733a2064656c65676174652063616c6c20746f206e6f6e2d636f60008201527f6e74726163740000000000000000000000000000000000000000000000000000602082015250565b6106ed816105c0565b81146106f857600080fd5b5056fe416464726573733a206c6f772d6c6576656c2064656c65676174652063616c6c206661696c6564a2646970667358221220183859ea9cb4bfef166a167928aa080b7022872711e5fe5ec864336ab30c52a364736f6c63430008040033416464726573733a206c6f772d6c6576656c2064656c65676174652063616c6c206661696c6564",
  "linkReferences": {},
  "deployedLinkReferences": {}
}