{
  "_format": "hh-sol-artifact-1",
  "contractName": "TokenProxyR",
  "sourceName": "contracts/TokenProxyR.sol",
  "abi": [
    {
      "inputs": [
        {
          "internalType": "address",
          "name": "_logic",
          "type": "address"
        },
        {
          "internalType": "bytes",
          "name": "_data",
          "type": "bytes"
        }
      ],
      "stateMutability": "nonpayable",
      "type": "constructor"
    },
    {
      "anonymous": false,
      "inputs": [
        {
          "indexed": false,
          "internalType": "address",
          "name": "previousAdmin",
          "type": "address"
        },
        {
          "indexed": false,
          "internalType": "address",
          "name": "newAdmin",
          "type": "address"
        }
      ],
      "name": "AdminChanged",
      "type": "event"
    },
    {
      "anonymous": false,
      "inputs": [
        {
          "indexed": true,
          "internalType": "address",
          "name": "beacon",
          "type": "address"
        }
      ],
      "name": "BeaconUpgraded",
      "type": "event"
    },
    {
      "anonymous": false,
      "inputs": [
        {
          "indexed": true,
          "internalType": "address",
          "name": "implementation",
          "type": "address"
        }
      ],
      "name": "Upgraded",
      "type": "event"
    },
    {
      "stateMutability": "payable",
      "type": "fallback"
    },
    {
      "inputs": [
        {
          "internalType": "address",
          "name": "implementation",
          "type": "address"
        }
      ],
      "name": "upgradeTo",
      "outputs": [],
      "stateMutability": "nonpayable",
      "type": "function"
    },
    {
      "inputs": [],
      "name": "versionProxy",
      "outputs": [
        {
          "internalType": "uint32",
          "name": "",
          "type": "uint32"
        }
      ],
      "stateMutability": "view",
      "type": "function"
    },
    {
      "stateMutability": "payable",
      "type": "receive"
    }
  ],
  "bytecode": "0x60806040523480156200001157600080fd5b506040516200109e3803806200109e8339818101604052810190620000379190620005e6565b818160017f360894a13ba1a3210667c828492db98dca3e2076cc3735a920a3ca505d382bbd60001c6200006b919062000685565b60001b7f360894a13ba1a3210667c828492db98dca3e2076cc3735a920a3ca505d382bbc60001b14620000a357620000a2620006c0565b5b620000b782826000620000c160201b60201c565b5050505062000906565b620000d2836200010460201b60201c565b600082511180620000e05750805b15620000ff57620000fd83836200015b60201b620000d91760201c565b505b505050565b62000115816200019160201b60201c565b8073ffffffffffffffffffffffffffffffffffffffff167fbc7cd75a20ee27fd9adebab32041f755214dbc6bffa90cc0225b39da2e5c2d3b60405160405180910390a250565b606062000189838360405180606001604052806027815260200162001077602791396200026760201b60201c565b905092915050565b620001a7816200034b60201b620001061760201c565b620001e9576040517f08c379a0000000000000000000000000000000000000000000000000000000008152600401620001e09062000776565b60405180910390fd5b80620002237f360894a13ba1a3210667c828492db98dca3e2076cc3735a920a3ca505d382bbc60001b6200036e60201b620001291760201c565b60000160006101000a81548173ffffffffffffffffffffffffffffffffffffffff021916908373ffffffffffffffffffffffffffffffffffffffff16021790555050565b60606200027a846200034b60201b60201c565b620002bc576040517f08c379a0000000000000000000000000000000000000000000000000000000008152600401620002b3906200080e565b60405180910390fd5b6000808573ffffffffffffffffffffffffffffffffffffffff1685604051620002e691906200087d565b600060405180830381855af49150503d806000811462000323576040519150601f19603f3d011682016040523d82523d6000602084013e62000328565b606091505b5091509150620003408282866200037860201b60201c565b925050509392505050565b6000808273ffffffffffffffffffffffffffffffffffffffff163b119050919050565b6000819050919050565b606083156200038a57829050620003dd565b6000835111156200039e5782518084602001fd5b816040517f08c379a0000000000000000000000000000000000000000000000000000000008152600401620003d49190620008e2565b60405180910390fd5b9392505050565b6000604051905090565b600080fd5b600080fd5b600073ffffffffffffffffffffffffffffffffffffffff82169050919050565b60006200042582620003f8565b9050919050565b620004378162000418565b81146200044357600080fd5b50565b60008151905062000457816200042c565b92915050565b600080fd5b600080fd5b6000601f19601f8301169050919050565b7f4e487b7100000000000000000000000000000000000000000000000000000000600052604160045260246000fd5b620004b28262000467565b810181811067ffffffffffffffff82111715620004d457620004d362000478565b5b80604052505050565b6000620004e9620003e4565b9050620004f78282620004a7565b919050565b600067ffffffffffffffff8211156200051a576200051962000478565b5b620005258262000467565b9050602081019050919050565b60005b838110156200055257808201518184015260208101905062000535565b8381111562000562576000848401525b50505050565b60006200057f6200057984620004fc565b620004dd565b9050828152602081018484840111156200059e576200059d62000462565b5b620005ab84828562000532565b509392505050565b600082601f830112620005cb57620005ca6200045d565b5b8151620005dd84826020860162000568565b91505092915050565b600080604083850312156200060057620005ff620003ee565b5b6000620006108582860162000446565b925050602083015167ffffffffffffffff811115620006345762000633620003f3565b5b6200064285828601620005b3565b9150509250929050565b6000819050919050565b7f4e487b7100000000000000000000000000000000000000000000000000000000600052601160045260246000fd5b600062000692826200064c565b91506200069f836200064c565b925082821015620006b557620006b462000656565b5b828203905092915050565b7f4e487b7100000000000000000000000000000000000000000000000000000000600052600160045260246000fd5b600082825260208201905092915050565b7f455243313936373a206e657720696d706c656d656e746174696f6e206973206e60008201527f6f74206120636f6e747261637400000000000000000000000000000000000000602082015250565b60006200075e602d83620006ef565b91506200076b8262000700565b604082019050919050565b6000602082019050818103600083015262000791816200074f565b9050919050565b7f416464726573733a2064656c65676174652063616c6c20746f206e6f6e2d636f60008201527f6e74726163740000000000000000000000000000000000000000000000000000602082015250565b6000620007f6602683620006ef565b9150620008038262000798565b604082019050919050565b600060208201905081810360008301526200082981620007e7565b9050919050565b600081519050919050565b600081905092915050565b6000620008538262000830565b6200085f81856200083b565b93506200087181856020860162000532565b80840191505092915050565b60006200088b828462000846565b915081905092915050565b600081519050919050565b6000620008ae8262000896565b620008ba8185620006ef565b9350620008cc81856020860162000532565b620008d78162000467565b840191505092915050565b60006020820190508181036000830152620008fe8184620008a1565b905092915050565b61076180620009166000396000f3fe60806040526004361061002d5760003560e01c80633659cfe6146100465780635f749f681461006f5761003c565b3661003c5761003a61009a565b005b61004461009a565b005b34801561005257600080fd5b5061006d60048036038101906100689190610460565b6100b4565b005b34801561007b57600080fd5b506100846100c0565b60405161009191906104ac565b60405180910390f35b6100a2610133565b6100b26100ad610135565b610144565b565b6100bd8161016a565b50565b60008060009054906101000a900463ffffffff16905090565b60606100fe8383604051806060016040528060278152602001610705602791396101b9565b905092915050565b6000808273ffffffffffffffffffffffffffffffffffffffff163b119050919050565b6000819050919050565b565b600061013f610286565b905090565b3660008037600080366000845af43d6000803e8060008114610165573d6000f35b3d6000fd5b610173816102dd565b8073ffffffffffffffffffffffffffffffffffffffff167fbc7cd75a20ee27fd9adebab32041f755214dbc6bffa90cc0225b39da2e5c2d3b60405160405180910390a250565b60606101c484610106565b610203576040517f08c379a00000000000000000000000000000000000000000000000000000000081526004016101fa9061054a565b60405180910390fd5b6000808573ffffffffffffffffffffffffffffffffffffffff168560405161022b91906105e4565b600060405180830381855af49150503d8060008114610266576040519150601f19603f3d011682016040523d82523d6000602084013e61026b565b606091505b509150915061027b828286610396565b925050509392505050565b60006102b47f360894a13ba1a3210667c828492db98dca3e2076cc3735a920a3ca505d382bbc60001b610129565b60000160009054906101000a900473ffffffffffffffffffffffffffffffffffffffff16905090565b6102e681610106565b610325576040517f08c379a000000000000000000000000000000000000000000000000000000000815260040161031c9061066d565b60405180910390fd5b806103527f360894a13ba1a3210667c828492db98dca3e2076cc3735a920a3ca505d382bbc60001b610129565b60000160006101000a81548173ffffffffffffffffffffffffffffffffffffffff021916908373ffffffffffffffffffffffffffffffffffffffff16021790555050565b606083156103a6578290506103f6565b6000835111156103b95782518084602001fd5b816040517f08c379a00000000000000000000000000000000000000000000000000000000081526004016103ed91906106e2565b60405180910390fd5b9392505050565b600080fd5b600073ffffffffffffffffffffffffffffffffffffffff82169050919050565b600061042d82610402565b9050919050565b61043d81610422565b811461044857600080fd5b50565b60008135905061045a81610434565b92915050565b600060208284031215610476576104756103fd565b5b60006104848482850161044b565b91505092915050565b600063ffffffff82169050919050565b6104a68161048d565b82525050565b60006020820190506104c1600083018461049d565b92915050565b600082825260208201905092915050565b7f416464726573733a2064656c65676174652063616c6c20746f206e6f6e2d636f60008201527f6e74726163740000000000000000000000000000000000000000000000000000602082015250565b60006105346026836104c7565b915061053f826104d8565b604082019050919050565b6000602082019050818103600083015261056381610527565b9050919050565b600081519050919050565b600081905092915050565b60005b8381101561059e578082015181840152602081019050610583565b838111156105ad576000848401525b50505050565b60006105be8261056a565b6105c88185610575565b93506105d8818560208601610580565b80840191505092915050565b60006105f082846105b3565b915081905092915050565b7f455243313936373a206e657720696d706c656d656e746174696f6e206973206e60008201527f6f74206120636f6e747261637400000000000000000000000000000000000000602082015250565b6000610657602d836104c7565b9150610662826105fb565b604082019050919050565b600060208201905081810360008301526106868161064a565b9050919050565b600081519050919050565b6000601f19601f8301169050919050565b60006106b48261068d565b6106be81856104c7565b93506106ce818560208601610580565b6106d781610698565b840191505092915050565b600060208201905081810360008301526106fc81846106a9565b90509291505056fe416464726573733a206c6f772d6c6576656c2064656c65676174652063616c6c206661696c6564a2646970667358221220afec0b05e5c56d4dc68c4ca7f3cc1635d617079654cbe8b21087dfcb3467956864736f6c634300080d0033416464726573733a206c6f772d6c6576656c2064656c65676174652063616c6c206661696c6564",
  "linkReferences": {},
  "deployedLinkReferences": {}
}