{
  "_format": "hh-sol-artifact-1",
  "contractName": "TokenFactoryRV2",
  "sourceName": "contracts/TokenFactoryRV2.sol",
  "abi": [
    {
      "anonymous": false,
      "inputs": [
        {
          "indexed": true,
          "internalType": "address",
          "name": "previousOwner",
          "type": "address"
        },
        {
          "indexed": true,
          "internalType": "address",
          "name": "newOwner",
          "type": "address"
        }
      ],
      "name": "OwnershipTransferred",
      "type": "event"
    },
    {
      "inputs": [
        {
          "internalType": "string",
          "name": "_name",
          "type": "string"
        },
        {
          "internalType": "string",
          "name": "_symbol",
          "type": "string"
        }
      ],
      "name": "createProxyContract",
      "outputs": [],
      "stateMutability": "nonpayable",
      "type": "function"
    },
    {
      "inputs": [],
      "name": "getCurrentCounter",
      "outputs": [
        {
          "internalType": "uint256",
          "name": "",
          "type": "uint256"
        }
      ],
      "stateMutability": "view",
      "type": "function"
    },
    {
      "inputs": [
        {
          "internalType": "uint256",
          "name": "id",
          "type": "uint256"
        }
      ],
      "name": "getProxyAddress",
      "outputs": [
        {
          "internalType": "address",
          "name": "",
          "type": "address"
        }
      ],
      "stateMutability": "view",
      "type": "function"
    },
    {
      "inputs": [
        {
          "internalType": "string",
          "name": "_version",
          "type": "string"
        }
      ],
      "name": "initialize",
      "outputs": [],
      "stateMutability": "nonpayable",
      "type": "function"
    },
    {
      "inputs": [],
      "name": "owner",
      "outputs": [
        {
          "internalType": "address",
          "name": "",
          "type": "address"
        }
      ],
      "stateMutability": "view",
      "type": "function"
    },
    {
      "inputs": [],
      "name": "renounceOwnership",
      "outputs": [],
      "stateMutability": "nonpayable",
      "type": "function"
    },
    {
      "inputs": [],
      "name": "sayHello",
      "outputs": [
        {
          "internalType": "string",
          "name": "",
          "type": "string"
        }
      ],
      "stateMutability": "pure",
      "type": "function"
    },
    {
      "inputs": [
        {
          "internalType": "address",
          "name": "newOwner",
          "type": "address"
        }
      ],
      "name": "transferOwnership",
      "outputs": [],
      "stateMutability": "nonpayable",
      "type": "function"
    },
    {
      "inputs": [],
      "name": "versionContract",
      "outputs": [
        {
          "internalType": "string",
          "name": "",
          "type": "string"
        }
      ],
      "stateMutability": "view",
      "type": "function"
    }
  ],
  "bytecode": "0x608060405234801561001057600080fd5b506144df806100206000396000f3fe60806040523480156200001157600080fd5b5060043610620000a05760003560e01c8063a882d866116200006f578063a882d866146200012b578063adedd321146200014d578063ef5fb05b146200016d578063f2fde38b146200018f578063f62d188814620001af57620000a0565b8063384ba7f214620000a5578063715018a614620000db57806373448c4614620000e75780638da5cb5b1462000109575b600080fd5b620000c36004803603810190620000bd9190620009e9565b620001cf565b604051620000d2919062000a60565b60405180910390f35b620000e56200020c565b005b620000f16200029d565b60405162000100919062000a8e565b60405180910390f35b62000113620002b0565b60405162000122919062000a60565b60405180910390f35b62000135620002da565b60405162000144919062000b4f565b60405180910390f35b6200016b600480360381019062000165919062000cc4565b62000374565b005b6200017762000554565b60405162000186919062000b4f565b60405180910390f35b620001ad6004803603810190620001a7919062000d7a565b62000591565b005b620001cd6004803603810190620001c7919062000dac565b62000694565b005b60006065600083815260200190815260200160002060009054906101000a900473ffffffffffffffffffffffffffffffffffffffff169050919050565b62000216620007a6565b73ffffffffffffffffffffffffffffffffffffffff1662000236620002b0565b73ffffffffffffffffffffffffffffffffffffffff16146200028f576040517f08c379a0000000000000000000000000000000000000000000000000000000008152600401620002869062000e4d565b60405180910390fd5b6200029b6000620007ae565b565b6000620002ab606662000874565b905090565b6000603360009054906101000a900473ffffffffffffffffffffffffffffffffffffffff16905090565b606060678054620002eb9062000e9e565b80601f0160208091040260200160405190810160405280929190818152602001828054620003199062000e9e565b80156200036a5780601f106200033e576101008083540402835291602001916200036a565b820191906000526020600020905b8154815290600101906020018083116200034c57829003601f168201915b5050505050905090565b6200037e620007a6565b73ffffffffffffffffffffffffffffffffffffffff166200039e620002b0565b73ffffffffffffffffffffffffffffffffffffffff1614620003f7576040517f08c379a0000000000000000000000000000000000000000000000000000000008152600401620003ee9062000e4d565b60405180910390fd5b60006040516200040790620008ce565b604051809103906000f08015801562000424573d6000803e3d6000fd5b509050600081634cd88b7660e01b85856040516024016200044792919062000ed3565b604051602081830303815290604052907bffffffffffffffffffffffffffffffffffffffffffffffffffffffff19166020820180517bffffffffffffffffffffffffffffffffffffffffffffffffffffffff8381831617835250505050604051620004b290620008dc565b620004bf92919062000f6b565b604051809103906000f080158015620004dc573d6000803e3d6000fd5b5090506000620004ed606662000874565b9050816065600083815260200190815260200160002060006101000a81548173ffffffffffffffffffffffffffffffffffffffff021916908373ffffffffffffffffffffffffffffffffffffffff1602179055506200054d606662000882565b5050505050565b60606040518060400160405280600981526020017f5361792068656c6c6f0000000000000000000000000000000000000000000000815250905090565b6200059b620007a6565b73ffffffffffffffffffffffffffffffffffffffff16620005bb620002b0565b73ffffffffffffffffffffffffffffffffffffffff161462000614576040517f08c379a00000000000000000000000000000000000000000000000000000000081526004016200060b9062000e4d565b60405180910390fd5b600073ffffffffffffffffffffffffffffffffffffffff168173ffffffffffffffffffffffffffffffffffffffff160362000686576040517f08c379a00000000000000000000000000000000000000000000000000000000081526004016200067d9062001015565b60405180910390fd5b6200069181620007ae565b50565b600060019054906101000a900460ff16620006be5760008054906101000a900460ff1615620006c9565b620006c862000898565b5b6200070b576040517f08c379a00000000000000000000000000000000000000000000000000000000081526004016200070290620010ad565b60405180910390fd5b60008060019054906101000a900460ff1615905080156200075c576001600060016101000a81548160ff02191690831515021790555060016000806101000a81548160ff0219169083151502179055505b6200076732620007ae565b81606790805190602001906200077f929190620008ea565b508015620007a25760008060016101000a81548160ff0219169083151502179055505b5050565b600033905090565b6000603360009054906101000a900473ffffffffffffffffffffffffffffffffffffffff16905081603360006101000a81548173ffffffffffffffffffffffffffffffffffffffff021916908373ffffffffffffffffffffffffffffffffffffffff1602179055508173ffffffffffffffffffffffffffffffffffffffff168173ffffffffffffffffffffffffffffffffffffffff167f8be0079c531659141344cd1fd0a4f28419497f9722a3daafe3b4186f6b6457e060405160405180910390a35050565b600081600001549050919050565b6001816000016000828254019250508190555050565b6000620008a530620008ab565b15905090565b6000808273ffffffffffffffffffffffffffffffffffffffff163b119050919050565b61233c80620010d083390190565b61109e806200340c83390190565b828054620008f89062000e9e565b90600052602060002090601f0160209004810192826200091c576000855562000968565b82601f106200093757805160ff191683800117855562000968565b8280016001018555821562000968579182015b82811115620009675782518255916020019190600101906200094a565b5b5090506200097791906200097b565b5090565b5b80821115620009965760008160009055506001016200097c565b5090565b6000604051905090565b600080fd5b600080fd5b6000819050919050565b620009c381620009ae565b8114620009cf57600080fd5b50565b600081359050620009e381620009b8565b92915050565b60006020828403121562000a025762000a01620009a4565b5b600062000a1284828501620009d2565b91505092915050565b600073ffffffffffffffffffffffffffffffffffffffff82169050919050565b600062000a488262000a1b565b9050919050565b62000a5a8162000a3b565b82525050565b600060208201905062000a77600083018462000a4f565b92915050565b62000a8881620009ae565b82525050565b600060208201905062000aa5600083018462000a7d565b92915050565b600081519050919050565b600082825260208201905092915050565b60005b8381101562000ae757808201518184015260208101905062000aca565b8381111562000af7576000848401525b50505050565b6000601f19601f8301169050919050565b600062000b1b8262000aab565b62000b27818562000ab6565b935062000b3981856020860162000ac7565b62000b448162000afd565b840191505092915050565b6000602082019050818103600083015262000b6b818462000b0e565b905092915050565b600080fd5b600080fd5b7f4e487b7100000000000000000000000000000000000000000000000000000000600052604160045260246000fd5b62000bb78262000afd565b810181811067ffffffffffffffff8211171562000bd95762000bd862000b7d565b5b80604052505050565b600062000bee6200099a565b905062000bfc828262000bac565b919050565b600067ffffffffffffffff82111562000c1f5762000c1e62000b7d565b5b62000c2a8262000afd565b9050602081019050919050565b82818337600083830152505050565b600062000c5d62000c578462000c01565b62000be2565b90508281526020810184848401111562000c7c5762000c7b62000b78565b5b62000c8984828562000c37565b509392505050565b600082601f83011262000ca95762000ca862000b73565b5b813562000cbb84826020860162000c46565b91505092915050565b6000806040838503121562000cde5762000cdd620009a4565b5b600083013567ffffffffffffffff81111562000cff5762000cfe620009a9565b5b62000d0d8582860162000c91565b925050602083013567ffffffffffffffff81111562000d315762000d30620009a9565b5b62000d3f8582860162000c91565b9150509250929050565b62000d548162000a3b565b811462000d6057600080fd5b50565b60008135905062000d748162000d49565b92915050565b60006020828403121562000d935762000d92620009a4565b5b600062000da38482850162000d63565b91505092915050565b60006020828403121562000dc55762000dc4620009a4565b5b600082013567ffffffffffffffff81111562000de65762000de5620009a9565b5b62000df48482850162000c91565b91505092915050565b7f4f776e61626c653a2063616c6c6572206973206e6f7420746865206f776e6572600082015250565b600062000e3560208362000ab6565b915062000e428262000dfd565b602082019050919050565b6000602082019050818103600083015262000e688162000e26565b9050919050565b7f4e487b7100000000000000000000000000000000000000000000000000000000600052602260045260246000fd5b6000600282049050600182168062000eb757607f821691505b60208210810362000ecd5762000ecc62000e6f565b5b50919050565b6000604082019050818103600083015262000eef818562000b0e565b9050818103602083015262000f05818462000b0e565b90509392505050565b600081519050919050565b600082825260208201905092915050565b600062000f378262000f0e565b62000f43818562000f19565b935062000f5581856020860162000ac7565b62000f608162000afd565b840191505092915050565b600060408201905062000f82600083018562000a4f565b818103602083015262000f96818462000f2a565b90509392505050565b7f4f776e61626c653a206e6577206f776e657220697320746865207a65726f206160008201527f6464726573730000000000000000000000000000000000000000000000000000602082015250565b600062000ffd60268362000ab6565b91506200100a8262000f9f565b604082019050919050565b60006020820190508181036000830152620010308162000fee565b9050919050565b7f496e697469616c697a61626c653a20636f6e747261637420697320616c72656160008201527f647920696e697469616c697a6564000000000000000000000000000000000000602082015250565b600062001095602e8362000ab6565b9150620010a28262001037565b604082019050919050565b60006020820190508181036000830152620010c88162001086565b905091905056fe608060405234801561001057600080fd5b5061231c806100206000396000f3fe608060405234801561001057600080fd5b50600436106101165760003560e01c806370a08231116100a257806395d89b411161007157806395d89b41146102cf578063a457c2d7146102ed578063a9059cbb1461031d578063dd62ed3e1461034d578063f2fde38b1461037d57610116565b806370a082311461025b578063715018a61461028b57806379cc6790146102955780638da5cb5b146102b157610116565b8063313ce567116100e9578063313ce567146101b757806339509351146101d557806342966c68146102055780634cd88b76146102215780635c975abb1461023d57610116565b806306fdde031461011b578063095ea7b31461013957806318160ddd1461016957806323b872dd14610187575b600080fd5b610123610399565b604051610130919061164a565b60405180910390f35b610153600480360381019061014e9190611714565b61042b565b604051610160919061176f565b60405180910390f35b61017161044e565b60405161017e9190611799565b60405180910390f35b6101a1600480360381019061019c91906117b4565b610458565b6040516101ae919061176f565b60405180910390f35b6101bf610487565b6040516101cc9190611823565b60405180910390f35b6101ef60048036038101906101ea9190611714565b610490565b6040516101fc919061176f565b60405180910390f35b61021f600480360381019061021a919061183e565b61053a565b005b61023b600480360381019061023691906119a0565b61054e565b005b610245610656565b604051610252919061176f565b60405180910390f35b61027560048036038101906102709190611a18565b61066d565b6040516102829190611799565b60405180910390f35b6102936106b6565b005b6102af60048036038101906102aa9190611714565b61073e565b005b6102b961075e565b6040516102c69190611a54565b60405180910390f35b6102d7610788565b6040516102e4919061164a565b60405180910390f35b61030760048036038101906103029190611714565b61081a565b604051610314919061176f565b60405180910390f35b61033760048036038101906103329190611714565b610904565b604051610344919061176f565b60405180910390f35b61036760048036038101906103629190611a6f565b610927565b6040516103749190611799565b60405180910390f35b61039760048036038101906103929190611a18565b6109ae565b005b6060603680546103a890611ade565b80601f01602080910402602001604051908101604052809291908181526020018280546103d490611ade565b80156104215780601f106103f657610100808354040283529160200191610421565b820191906000526020600020905b81548152906001019060200180831161040457829003601f168201915b5050505050905090565b600080610436610aa5565b9050610443818585610aad565b600191505092915050565b6000603554905090565b600080610463610aa5565b9050610470858285610c76565b61047b858585610d02565b60019150509392505050565b60006012905090565b60008061049b610aa5565b905061052f818585603460008673ffffffffffffffffffffffffffffffffffffffff1673ffffffffffffffffffffffffffffffffffffffff16815260200190815260200160002060008973ffffffffffffffffffffffffffffffffffffffff1673ffffffffffffffffffffffffffffffffffffffff1681526020019081526020016000205461052a9190611b3e565b610aad565b600191505092915050565b61054b610545610aa5565b82610f84565b50565b600060019054906101000a900460ff166105765760008054906101000a900460ff161561057f565b61057e61115c565b5b6105be576040517f08c379a00000000000000000000000000000000000000000000000000000000081526004016105b590611c06565b60405180910390fd5b60008060019054906101000a900460ff16159050801561060e576001600060016101000a81548160ff02191690831515021790555060016000806101000a81548160ff0219169083151502179055505b610618838361116d565b6106206111ca565b61062861121b565b610630611274565b80156106515760008060016101000a81548160ff0219169083151502179055505b505050565b6000609760009054906101000a900460ff16905090565b6000603360008373ffffffffffffffffffffffffffffffffffffffff1673ffffffffffffffffffffffffffffffffffffffff168152602001908152602001600020549050919050565b6106be610aa5565b73ffffffffffffffffffffffffffffffffffffffff166106dc61075e565b73ffffffffffffffffffffffffffffffffffffffff1614610732576040517f08c379a000000000000000000000000000000000000000000000000000000000815260040161072990611c72565b60405180910390fd5b61073c60006112cd565b565b6107508261074a610aa5565b83610c76565b61075a8282610f84565b5050565b600060c960009054906101000a900473ffffffffffffffffffffffffffffffffffffffff16905090565b60606037805461079790611ade565b80601f01602080910402602001604051908101604052809291908181526020018280546107c390611ade565b80156108105780601f106107e557610100808354040283529160200191610810565b820191906000526020600020905b8154815290600101906020018083116107f357829003601f168201915b5050505050905090565b600080610825610aa5565b90506000603460008373ffffffffffffffffffffffffffffffffffffffff1673ffffffffffffffffffffffffffffffffffffffff16815260200190815260200160002060008673ffffffffffffffffffffffffffffffffffffffff1673ffffffffffffffffffffffffffffffffffffffff168152602001908152602001600020549050838110156108eb576040517f08c379a00000000000000000000000000000000000000000000000000000000081526004016108e290611d04565b60405180910390fd5b6108f88286868403610aad565b60019250505092915050565b60008061090f610aa5565b905061091c818585610d02565b600191505092915050565b6000603460008473ffffffffffffffffffffffffffffffffffffffff1673ffffffffffffffffffffffffffffffffffffffff16815260200190815260200160002060008373ffffffffffffffffffffffffffffffffffffffff1673ffffffffffffffffffffffffffffffffffffffff16815260200190815260200160002054905092915050565b6109b6610aa5565b73ffffffffffffffffffffffffffffffffffffffff166109d461075e565b73ffffffffffffffffffffffffffffffffffffffff1614610a2a576040517f08c379a0000000000000000000000000000000000000000000000000000000008152600401610a2190611c72565b60405180910390fd5b600073ffffffffffffffffffffffffffffffffffffffff168173ffffffffffffffffffffffffffffffffffffffff1603610a99576040517f08c379a0000000000000000000000000000000000000000000000000000000008152600401610a9090611d96565b60405180910390fd5b610aa2816112cd565b50565b600033905090565b600073ffffffffffffffffffffffffffffffffffffffff168373ffffffffffffffffffffffffffffffffffffffff1603610b1c576040517f08c379a0000000000000000000000000000000000000000000000000000000008152600401610b1390611e28565b60405180910390fd5b600073ffffffffffffffffffffffffffffffffffffffff168273ffffffffffffffffffffffffffffffffffffffff1603610b8b576040517f08c379a0000000000000000000000000000000000000000000000000000000008152600401610b8290611eba565b60405180910390fd5b80603460008573ffffffffffffffffffffffffffffffffffffffff1673ffffffffffffffffffffffffffffffffffffffff16815260200190815260200160002060008473ffffffffffffffffffffffffffffffffffffffff1673ffffffffffffffffffffffffffffffffffffffff168152602001908152602001600020819055508173ffffffffffffffffffffffffffffffffffffffff168373ffffffffffffffffffffffffffffffffffffffff167f8c5be1e5ebec7d5bd14f71427d1e84f3dd0314c0f7b2291e5b200ac8c7c3b92583604051610c699190611799565b60405180910390a3505050565b6000610c828484610927565b90507fffffffffffffffffffffffffffffffffffffffffffffffffffffffffffffffff8114610cfc5781811015610cee576040517f08c379a0000000000000000000000000000000000000000000000000000000008152600401610ce590611f26565b60405180910390fd5b610cfb8484848403610aad565b5b50505050565b600073ffffffffffffffffffffffffffffffffffffffff168373ffffffffffffffffffffffffffffffffffffffff1603610d71576040517f08c379a0000000000000000000000000000000000000000000000000000000008152600401610d6890611fb8565b60405180910390fd5b600073ffffffffffffffffffffffffffffffffffffffff168273ffffffffffffffffffffffffffffffffffffffff1603610de0576040517f08c379a0000000000000000000000000000000000000000000000000000000008152600401610dd79061204a565b60405180910390fd5b610deb838383611393565b6000603360008573ffffffffffffffffffffffffffffffffffffffff1673ffffffffffffffffffffffffffffffffffffffff16815260200190815260200160002054905081811015610e72576040517f08c379a0000000000000000000000000000000000000000000000000000000008152600401610e69906120dc565b60405180910390fd5b818103603360008673ffffffffffffffffffffffffffffffffffffffff1673ffffffffffffffffffffffffffffffffffffffff1681526020019081526020016000208190555081603360008573ffffffffffffffffffffffffffffffffffffffff1673ffffffffffffffffffffffffffffffffffffffff1681526020019081526020016000206000828254610f079190611b3e565b925050819055508273ffffffffffffffffffffffffffffffffffffffff168473ffffffffffffffffffffffffffffffffffffffff167fddf252ad1be2c89b69c2b068fc378daa952ba7f163c4a11628f55a4df523b3ef84604051610f6b9190611799565b60405180910390a3610f7e848484611398565b50505050565b600073ffffffffffffffffffffffffffffffffffffffff168273ffffffffffffffffffffffffffffffffffffffff1603610ff3576040517f08c379a0000000000000000000000000000000000000000000000000000000008152600401610fea9061216e565b60405180910390fd5b610fff82600083611393565b6000603360008473ffffffffffffffffffffffffffffffffffffffff1673ffffffffffffffffffffffffffffffffffffffff16815260200190815260200160002054905081811015611086576040517f08c379a000000000000000000000000000000000000000000000000000000000815260040161107d90612200565b60405180910390fd5b818103603360008573ffffffffffffffffffffffffffffffffffffffff1673ffffffffffffffffffffffffffffffffffffffff1681526020019081526020016000208190555081603560008282546110de9190612220565b92505081905550600073ffffffffffffffffffffffffffffffffffffffff168373ffffffffffffffffffffffffffffffffffffffff167fddf252ad1be2c89b69c2b068fc378daa952ba7f163c4a11628f55a4df523b3ef846040516111439190611799565b60405180910390a361115783600084611398565b505050565b60006111673061139d565b15905090565b600060019054906101000a900460ff166111bc576040517f08c379a00000000000000000000000000000000000000000000000000000000081526004016111b3906122c6565b60405180910390fd5b6111c682826113c0565b5050565b600060019054906101000a900460ff16611219576040517f08c379a0000000000000000000000000000000000000000000000000000000008152600401611210906122c6565b60405180910390fd5b565b600060019054906101000a900460ff1661126a576040517f08c379a0000000000000000000000000000000000000000000000000000000008152600401611261906122c6565b60405180910390fd5b611272611441565b565b600060019054906101000a900460ff166112c3576040517f08c379a00000000000000000000000000000000000000000000000000000000081526004016112ba906122c6565b60405180910390fd5b6112cb6114ad565b565b600060c960009054906101000a900473ffffffffffffffffffffffffffffffffffffffff1690508160c960006101000a81548173ffffffffffffffffffffffffffffffffffffffff021916908373ffffffffffffffffffffffffffffffffffffffff1602179055508173ffffffffffffffffffffffffffffffffffffffff168173ffffffffffffffffffffffffffffffffffffffff167f8be0079c531659141344cd1fd0a4f28419497f9722a3daafe3b4186f6b6457e060405160405180910390a35050565b505050565b505050565b6000808273ffffffffffffffffffffffffffffffffffffffff163b119050919050565b600060019054906101000a900460ff1661140f576040517f08c379a0000000000000000000000000000000000000000000000000000000008152600401611406906122c6565b60405180910390fd5b816036908051906020019061142592919061150e565b50806037908051906020019061143c92919061150e565b505050565b600060019054906101000a900460ff16611490576040517f08c379a0000000000000000000000000000000000000000000000000000000008152600401611487906122c6565b60405180910390fd5b6000609760006101000a81548160ff021916908315150217905550565b600060019054906101000a900460ff166114fc576040517f08c379a00000000000000000000000000000000000000000000000000000000081526004016114f3906122c6565b60405180910390fd5b61150c611507610aa5565b6112cd565b565b82805461151a90611ade565b90600052602060002090601f01602090048101928261153c5760008555611583565b82601f1061155557805160ff1916838001178555611583565b82800160010185558215611583579182015b82811115611582578251825591602001919060010190611567565b5b5090506115909190611594565b5090565b5b808211156115ad576000816000905550600101611595565b5090565b600081519050919050565b600082825260208201905092915050565b60005b838110156115eb5780820151818401526020810190506115d0565b838111156115fa576000848401525b50505050565b6000601f19601f8301169050919050565b600061161c826115b1565b61162681856115bc565b93506116368185602086016115cd565b61163f81611600565b840191505092915050565b600060208201905081810360008301526116648184611611565b905092915050565b6000604051905090565b600080fd5b600080fd5b600073ffffffffffffffffffffffffffffffffffffffff82169050919050565b60006116ab82611680565b9050919050565b6116bb816116a0565b81146116c657600080fd5b50565b6000813590506116d8816116b2565b92915050565b6000819050919050565b6116f1816116de565b81146116fc57600080fd5b50565b60008135905061170e816116e8565b92915050565b6000806040838503121561172b5761172a611676565b5b6000611739858286016116c9565b925050602061174a858286016116ff565b9150509250929050565b60008115159050919050565b61176981611754565b82525050565b60006020820190506117846000830184611760565b92915050565b611793816116de565b82525050565b60006020820190506117ae600083018461178a565b92915050565b6000806000606084860312156117cd576117cc611676565b5b60006117db868287016116c9565b93505060206117ec868287016116c9565b92505060406117fd868287016116ff565b9150509250925092565b600060ff82169050919050565b61181d81611807565b82525050565b60006020820190506118386000830184611814565b92915050565b60006020828403121561185457611853611676565b5b6000611862848285016116ff565b91505092915050565b600080fd5b600080fd5b7f4e487b7100000000000000000000000000000000000000000000000000000000600052604160045260246000fd5b6118ad82611600565b810181811067ffffffffffffffff821117156118cc576118cb611875565b5b80604052505050565b60006118df61166c565b90506118eb82826118a4565b919050565b600067ffffffffffffffff82111561190b5761190a611875565b5b61191482611600565b9050602081019050919050565b82818337600083830152505050565b600061194361193e846118f0565b6118d5565b90508281526020810184848401111561195f5761195e611870565b5b61196a848285611921565b509392505050565b600082601f8301126119875761198661186b565b5b8135611997848260208601611930565b91505092915050565b600080604083850312156119b7576119b6611676565b5b600083013567ffffffffffffffff8111156119d5576119d461167b565b5b6119e185828601611972565b925050602083013567ffffffffffffffff811115611a0257611a0161167b565b5b611a0e85828601611972565b9150509250929050565b600060208284031215611a2e57611a2d611676565b5b6000611a3c848285016116c9565b91505092915050565b611a4e816116a0565b82525050565b6000602082019050611a696000830184611a45565b92915050565b60008060408385031215611a8657611a85611676565b5b6000611a94858286016116c9565b9250506020611aa5858286016116c9565b9150509250929050565b7f4e487b7100000000000000000000000000000000000000000000000000000000600052602260045260246000fd5b60006002820490506001821680611af657607f821691505b602082108103611b0957611b08611aaf565b5b50919050565b7f4e487b7100000000000000000000000000000000000000000000000000000000600052601160045260246000fd5b6000611b49826116de565b9150611b54836116de565b9250827fffffffffffffffffffffffffffffffffffffffffffffffffffffffffffffffff03821115611b8957611b88611b0f565b5b828201905092915050565b7f496e697469616c697a61626c653a20636f6e747261637420697320616c72656160008201527f647920696e697469616c697a6564000000000000000000000000000000000000602082015250565b6000611bf0602e836115bc565b9150611bfb82611b94565b604082019050919050565b60006020820190508181036000830152611c1f81611be3565b9050919050565b7f4f776e61626c653a2063616c6c6572206973206e6f7420746865206f776e6572600082015250565b6000611c5c6020836115bc565b9150611c6782611c26565b602082019050919050565b60006020820190508181036000830152611c8b81611c4f565b9050919050565b7f45524332303a2064656372656173656420616c6c6f77616e63652062656c6f7760008201527f207a65726f000000000000000000000000000000000000000000000000000000602082015250565b6000611cee6025836115bc565b9150611cf982611c92565b604082019050919050565b60006020820190508181036000830152611d1d81611ce1565b9050919050565b7f4f776e61626c653a206e6577206f776e657220697320746865207a65726f206160008201527f6464726573730000000000000000000000000000000000000000000000000000602082015250565b6000611d806026836115bc565b9150611d8b82611d24565b604082019050919050565b60006020820190508181036000830152611daf81611d73565b9050919050565b7f45524332303a20617070726f76652066726f6d20746865207a65726f2061646460008201527f7265737300000000000000000000000000000000000000000000000000000000602082015250565b6000611e126024836115bc565b9150611e1d82611db6565b604082019050919050565b60006020820190508181036000830152611e4181611e05565b9050919050565b7f45524332303a20617070726f766520746f20746865207a65726f20616464726560008201527f7373000000000000000000000000000000000000000000000000000000000000602082015250565b6000611ea46022836115bc565b9150611eaf82611e48565b604082019050919050565b60006020820190508181036000830152611ed381611e97565b9050919050565b7f45524332303a20696e73756666696369656e7420616c6c6f77616e6365000000600082015250565b6000611f10601d836115bc565b9150611f1b82611eda565b602082019050919050565b60006020820190508181036000830152611f3f81611f03565b9050919050565b7f45524332303a207472616e736665722066726f6d20746865207a65726f20616460008201527f6472657373000000000000000000000000000000000000000000000000000000602082015250565b6000611fa26025836115bc565b9150611fad82611f46565b604082019050919050565b60006020820190508181036000830152611fd181611f95565b9050919050565b7f45524332303a207472616e7366657220746f20746865207a65726f206164647260008201527f6573730000000000000000000000000000000000000000000000000000000000602082015250565b60006120346023836115bc565b915061203f82611fd8565b604082019050919050565b6000602082019050818103600083015261206381612027565b9050919050565b7f45524332303a207472616e7366657220616d6f756e742065786365656473206260008201527f616c616e63650000000000000000000000000000000000000000000000000000602082015250565b60006120c66026836115bc565b91506120d18261206a565b604082019050919050565b600060208201905081810360008301526120f5816120b9565b9050919050565b7f45524332303a206275726e2066726f6d20746865207a65726f2061646472657360008201527f7300000000000000000000000000000000000000000000000000000000000000602082015250565b60006121586021836115bc565b9150612163826120fc565b604082019050919050565b600060208201905081810360008301526121878161214b565b9050919050565b7f45524332303a206275726e20616d6f756e7420657863656564732062616c616e60008201527f6365000000000000000000000000000000000000000000000000000000000000602082015250565b60006121ea6022836115bc565b91506121f58261218e565b604082019050919050565b60006020820190508181036000830152612219816121dd565b9050919050565b600061222b826116de565b9150612236836116de565b92508282101561224957612248611b0f565b5b828203905092915050565b7f496e697469616c697a61626c653a20636f6e7472616374206973206e6f74206960008201527f6e697469616c697a696e67000000000000000000000000000000000000000000602082015250565b60006122b0602b836115bc565b91506122bb82612254565b604082019050919050565b600060208201905081810360008301526122df816122a3565b905091905056fea26469706673582212205e99f421b4d34e8bae7961c6605a859ae4602f92782986f7a1706a1281ebef7b64736f6c634300080d003360806040523480156200001157600080fd5b506040516200109e3803806200109e8339818101604052810190620000379190620005e6565b818160017f360894a13ba1a3210667c828492db98dca3e2076cc3735a920a3ca505d382bbd60001c6200006b919062000685565b60001b7f360894a13ba1a3210667c828492db98dca3e2076cc3735a920a3ca505d382bbc60001b14620000a357620000a2620006c0565b5b620000b782826000620000c160201b60201c565b5050505062000906565b620000d2836200010460201b60201c565b600082511180620000e05750805b15620000ff57620000fd83836200015b60201b620000d91760201c565b505b505050565b62000115816200019160201b60201c565b8073ffffffffffffffffffffffffffffffffffffffff167fbc7cd75a20ee27fd9adebab32041f755214dbc6bffa90cc0225b39da2e5c2d3b60405160405180910390a250565b606062000189838360405180606001604052806027815260200162001077602791396200026760201b60201c565b905092915050565b620001a7816200034b60201b620001061760201c565b620001e9576040517f08c379a0000000000000000000000000000000000000000000000000000000008152600401620001e09062000776565b60405180910390fd5b80620002237f360894a13ba1a3210667c828492db98dca3e2076cc3735a920a3ca505d382bbc60001b6200036e60201b620001291760201c565b60000160006101000a81548173ffffffffffffffffffffffffffffffffffffffff021916908373ffffffffffffffffffffffffffffffffffffffff16021790555050565b60606200027a846200034b60201b60201c565b620002bc576040517f08c379a0000000000000000000000000000000000000000000000000000000008152600401620002b3906200080e565b60405180910390fd5b6000808573ffffffffffffffffffffffffffffffffffffffff1685604051620002e691906200087d565b600060405180830381855af49150503d806000811462000323576040519150601f19603f3d011682016040523d82523d6000602084013e62000328565b606091505b5091509150620003408282866200037860201b60201c565b925050509392505050565b6000808273ffffffffffffffffffffffffffffffffffffffff163b119050919050565b6000819050919050565b606083156200038a57829050620003dd565b6000835111156200039e5782518084602001fd5b816040517f08c379a0000000000000000000000000000000000000000000000000000000008152600401620003d49190620008e2565b60405180910390fd5b9392505050565b6000604051905090565b600080fd5b600080fd5b600073ffffffffffffffffffffffffffffffffffffffff82169050919050565b60006200042582620003f8565b9050919050565b620004378162000418565b81146200044357600080fd5b50565b60008151905062000457816200042c565b92915050565b600080fd5b600080fd5b6000601f19601f8301169050919050565b7f4e487b7100000000000000000000000000000000000000000000000000000000600052604160045260246000fd5b620004b28262000467565b810181811067ffffffffffffffff82111715620004d457620004d362000478565b5b80604052505050565b6000620004e9620003e4565b9050620004f78282620004a7565b919050565b600067ffffffffffffffff8211156200051a576200051962000478565b5b620005258262000467565b9050602081019050919050565b60005b838110156200055257808201518184015260208101905062000535565b8381111562000562576000848401525b50505050565b60006200057f6200057984620004fc565b620004dd565b9050828152602081018484840111156200059e576200059d62000462565b5b620005ab84828562000532565b509392505050565b600082601f830112620005cb57620005ca6200045d565b5b8151620005dd84826020860162000568565b91505092915050565b600080604083850312156200060057620005ff620003ee565b5b6000620006108582860162000446565b925050602083015167ffffffffffffffff811115620006345762000633620003f3565b5b6200064285828601620005b3565b9150509250929050565b6000819050919050565b7f4e487b7100000000000000000000000000000000000000000000000000000000600052601160045260246000fd5b600062000692826200064c565b91506200069f836200064c565b925082821015620006b557620006b462000656565b5b828203905092915050565b7f4e487b7100000000000000000000000000000000000000000000000000000000600052600160045260246000fd5b600082825260208201905092915050565b7f455243313936373a206e657720696d706c656d656e746174696f6e206973206e60008201527f6f74206120636f6e747261637400000000000000000000000000000000000000602082015250565b60006200075e602d83620006ef565b91506200076b8262000700565b604082019050919050565b6000602082019050818103600083015262000791816200074f565b9050919050565b7f416464726573733a2064656c65676174652063616c6c20746f206e6f6e2d636f60008201527f6e74726163740000000000000000000000000000000000000000000000000000602082015250565b6000620007f6602683620006ef565b9150620008038262000798565b604082019050919050565b600060208201905081810360008301526200082981620007e7565b9050919050565b600081519050919050565b600081905092915050565b6000620008538262000830565b6200085f81856200083b565b93506200087181856020860162000532565b80840191505092915050565b60006200088b828462000846565b915081905092915050565b600081519050919050565b6000620008ae8262000896565b620008ba8185620006ef565b9350620008cc81856020860162000532565b620008d78162000467565b840191505092915050565b60006020820190508181036000830152620008fe8184620008a1565b905092915050565b61076180620009166000396000f3fe60806040526004361061002d5760003560e01c80633659cfe6146100465780635f749f681461006f5761003c565b3661003c5761003a61009a565b005b61004461009a565b005b34801561005257600080fd5b5061006d60048036038101906100689190610460565b6100b4565b005b34801561007b57600080fd5b506100846100c0565b60405161009191906104ac565b60405180910390f35b6100a2610133565b6100b26100ad610135565b610144565b565b6100bd8161016a565b50565b60008060009054906101000a900463ffffffff16905090565b60606100fe8383604051806060016040528060278152602001610705602791396101b9565b905092915050565b6000808273ffffffffffffffffffffffffffffffffffffffff163b119050919050565b6000819050919050565b565b600061013f610286565b905090565b3660008037600080366000845af43d6000803e8060008114610165573d6000f35b3d6000fd5b610173816102dd565b8073ffffffffffffffffffffffffffffffffffffffff167fbc7cd75a20ee27fd9adebab32041f755214dbc6bffa90cc0225b39da2e5c2d3b60405160405180910390a250565b60606101c484610106565b610203576040517f08c379a00000000000000000000000000000000000000000000000000000000081526004016101fa9061054a565b60405180910390fd5b6000808573ffffffffffffffffffffffffffffffffffffffff168560405161022b91906105e4565b600060405180830381855af49150503d8060008114610266576040519150601f19603f3d011682016040523d82523d6000602084013e61026b565b606091505b509150915061027b828286610396565b925050509392505050565b60006102b47f360894a13ba1a3210667c828492db98dca3e2076cc3735a920a3ca505d382bbc60001b610129565b60000160009054906101000a900473ffffffffffffffffffffffffffffffffffffffff16905090565b6102e681610106565b610325576040517f08c379a000000000000000000000000000000000000000000000000000000000815260040161031c9061066d565b60405180910390fd5b806103527f360894a13ba1a3210667c828492db98dca3e2076cc3735a920a3ca505d382bbc60001b610129565b60000160006101000a81548173ffffffffffffffffffffffffffffffffffffffff021916908373ffffffffffffffffffffffffffffffffffffffff16021790555050565b606083156103a6578290506103f6565b6000835111156103b95782518084602001fd5b816040517f08c379a00000000000000000000000000000000000000000000000000000000081526004016103ed91906106e2565b60405180910390fd5b9392505050565b600080fd5b600073ffffffffffffffffffffffffffffffffffffffff82169050919050565b600061042d82610402565b9050919050565b61043d81610422565b811461044857600080fd5b50565b60008135905061045a81610434565b92915050565b600060208284031215610476576104756103fd565b5b60006104848482850161044b565b91505092915050565b600063ffffffff82169050919050565b6104a68161048d565b82525050565b60006020820190506104c1600083018461049d565b92915050565b600082825260208201905092915050565b7f416464726573733a2064656c65676174652063616c6c20746f206e6f6e2d636f60008201527f6e74726163740000000000000000000000000000000000000000000000000000602082015250565b60006105346026836104c7565b915061053f826104d8565b604082019050919050565b6000602082019050818103600083015261056381610527565b9050919050565b600081519050919050565b600081905092915050565b60005b8381101561059e578082015181840152602081019050610583565b838111156105ad576000848401525b50505050565b60006105be8261056a565b6105c88185610575565b93506105d8818560208601610580565b80840191505092915050565b60006105f082846105b3565b915081905092915050565b7f455243313936373a206e657720696d706c656d656e746174696f6e206973206e60008201527f6f74206120636f6e747261637400000000000000000000000000000000000000602082015250565b6000610657602d836104c7565b9150610662826105fb565b604082019050919050565b600060208201905081810360008301526106868161064a565b9050919050565b600081519050919050565b6000601f19601f8301169050919050565b60006106b48261068d565b6106be81856104c7565b93506106ce818560208601610580565b6106d781610698565b840191505092915050565b600060208201905081810360008301526106fc81846106a9565b90509291505056fe416464726573733a206c6f772d6c6576656c2064656c65676174652063616c6c206661696c6564a2646970667358221220afec0b05e5c56d4dc68c4ca7f3cc1635d617079654cbe8b21087dfcb3467956864736f6c634300080d0033416464726573733a206c6f772d6c6576656c2064656c65676174652063616c6c206661696c6564a26469706673582212203c5ea65ad7d63be0c2db57daa2369f0d0e3ca75bc61227c88a5ff9db425ead3e64736f6c634300080d0033",
  "linkReferences": {},
  "deployedLinkReferences": {}
}