{
  "_format": "hh-sol-artifact-1",
  "contractName": "TokenR",
  "sourceName": "contracts/TokenR.sol",
  "abi": [
    {
      "anonymous": false,
      "inputs": [
        {
          "indexed": true,
          "internalType": "address",
          "name": "owner",
          "type": "address"
        },
        {
          "indexed": true,
          "internalType": "address",
          "name": "spender",
          "type": "address"
        },
        {
          "indexed": false,
          "internalType": "uint256",
          "name": "value",
          "type": "uint256"
        }
      ],
      "name": "Approval",
      "type": "event"
    },
    {
      "anonymous": false,
      "inputs": [
        {
          "indexed": true,
          "internalType": "address",
          "name": "previousOwner",
          "type": "address"
        },
        {
          "indexed": true,
          "internalType": "address",
          "name": "newOwner",
          "type": "address"
        }
      ],
      "name": "OwnershipTransferred",
      "type": "event"
    },
    {
      "anonymous": false,
      "inputs": [
        {
          "indexed": false,
          "internalType": "address",
          "name": "account",
          "type": "address"
        }
      ],
      "name": "Paused",
      "type": "event"
    },
    {
      "anonymous": false,
      "inputs": [
        {
          "indexed": true,
          "internalType": "address",
          "name": "from",
          "type": "address"
        },
        {
          "indexed": true,
          "internalType": "address",
          "name": "to",
          "type": "address"
        },
        {
          "indexed": false,
          "internalType": "uint256",
          "name": "value",
          "type": "uint256"
        }
      ],
      "name": "Transfer",
      "type": "event"
    },
    {
      "anonymous": false,
      "inputs": [
        {
          "indexed": false,
          "internalType": "address",
          "name": "account",
          "type": "address"
        }
      ],
      "name": "Unpaused",
      "type": "event"
    },
    {
      "inputs": [
        {
          "internalType": "address",
          "name": "owner",
          "type": "address"
        },
        {
          "internalType": "address",
          "name": "spender",
          "type": "address"
        }
      ],
      "name": "allowance",
      "outputs": [
        {
          "internalType": "uint256",
          "name": "",
          "type": "uint256"
        }
      ],
      "stateMutability": "view",
      "type": "function"
    },
    {
      "inputs": [
        {
          "internalType": "address",
          "name": "spender",
          "type": "address"
        },
        {
          "internalType": "uint256",
          "name": "amount",
          "type": "uint256"
        }
      ],
      "name": "approve",
      "outputs": [
        {
          "internalType": "bool",
          "name": "",
          "type": "bool"
        }
      ],
      "stateMutability": "nonpayable",
      "type": "function"
    },
    {
      "inputs": [
        {
          "internalType": "address",
          "name": "account",
          "type": "address"
        }
      ],
      "name": "balanceOf",
      "outputs": [
        {
          "internalType": "uint256",
          "name": "",
          "type": "uint256"
        }
      ],
      "stateMutability": "view",
      "type": "function"
    },
    {
      "inputs": [
        {
          "internalType": "uint256",
          "name": "amount",
          "type": "uint256"
        }
      ],
      "name": "burn",
      "outputs": [],
      "stateMutability": "nonpayable",
      "type": "function"
    },
    {
      "inputs": [
        {
          "internalType": "address",
          "name": "account",
          "type": "address"
        },
        {
          "internalType": "uint256",
          "name": "amount",
          "type": "uint256"
        }
      ],
      "name": "burnFrom",
      "outputs": [],
      "stateMutability": "nonpayable",
      "type": "function"
    },
    {
      "inputs": [],
      "name": "decimals",
      "outputs": [
        {
          "internalType": "uint8",
          "name": "",
          "type": "uint8"
        }
      ],
      "stateMutability": "view",
      "type": "function"
    },
    {
      "inputs": [
        {
          "internalType": "address",
          "name": "spender",
          "type": "address"
        },
        {
          "internalType": "uint256",
          "name": "subtractedValue",
          "type": "uint256"
        }
      ],
      "name": "decreaseAllowance",
      "outputs": [
        {
          "internalType": "bool",
          "name": "",
          "type": "bool"
        }
      ],
      "stateMutability": "nonpayable",
      "type": "function"
    },
    {
      "inputs": [
        {
          "internalType": "address",
          "name": "spender",
          "type": "address"
        },
        {
          "internalType": "uint256",
          "name": "addedValue",
          "type": "uint256"
        }
      ],
      "name": "increaseAllowance",
      "outputs": [
        {
          "internalType": "bool",
          "name": "",
          "type": "bool"
        }
      ],
      "stateMutability": "nonpayable",
      "type": "function"
    },
    {
      "inputs": [
        {
          "internalType": "string",
          "name": "_name",
          "type": "string"
        },
        {
          "internalType": "string",
          "name": "_symbol",
          "type": "string"
        }
      ],
      "name": "initialize",
      "outputs": [],
      "stateMutability": "nonpayable",
      "type": "function"
    },
    {
      "inputs": [],
      "name": "name",
      "outputs": [
        {
          "internalType": "string",
          "name": "",
          "type": "string"
        }
      ],
      "stateMutability": "view",
      "type": "function"
    },
    {
      "inputs": [],
      "name": "owner",
      "outputs": [
        {
          "internalType": "address",
          "name": "",
          "type": "address"
        }
      ],
      "stateMutability": "view",
      "type": "function"
    },
    {
      "inputs": [],
      "name": "paused",
      "outputs": [
        {
          "internalType": "bool",
          "name": "",
          "type": "bool"
        }
      ],
      "stateMutability": "view",
      "type": "function"
    },
    {
      "inputs": [],
      "name": "renounceOwnership",
      "outputs": [],
      "stateMutability": "nonpayable",
      "type": "function"
    },
    {
      "inputs": [],
      "name": "symbol",
      "outputs": [
        {
          "internalType": "string",
          "name": "",
          "type": "string"
        }
      ],
      "stateMutability": "view",
      "type": "function"
    },
    {
      "inputs": [],
      "name": "totalSupply",
      "outputs": [
        {
          "internalType": "uint256",
          "name": "",
          "type": "uint256"
        }
      ],
      "stateMutability": "view",
      "type": "function"
    },
    {
      "inputs": [
        {
          "internalType": "address",
          "name": "to",
          "type": "address"
        },
        {
          "internalType": "uint256",
          "name": "amount",
          "type": "uint256"
        }
      ],
      "name": "transfer",
      "outputs": [
        {
          "internalType": "bool",
          "name": "",
          "type": "bool"
        }
      ],
      "stateMutability": "nonpayable",
      "type": "function"
    },
    {
      "inputs": [
        {
          "internalType": "address",
          "name": "from",
          "type": "address"
        },
        {
          "internalType": "address",
          "name": "to",
          "type": "address"
        },
        {
          "internalType": "uint256",
          "name": "amount",
          "type": "uint256"
        }
      ],
      "name": "transferFrom",
      "outputs": [
        {
          "internalType": "bool",
          "name": "",
          "type": "bool"
        }
      ],
      "stateMutability": "nonpayable",
      "type": "function"
    },
    {
      "inputs": [
        {
          "internalType": "address",
          "name": "newOwner",
          "type": "address"
        }
      ],
      "name": "transferOwnership",
      "outputs": [],
      "stateMutability": "nonpayable",
      "type": "function"
    }
  ],
  "bytecode": "0x608060405234801561001057600080fd5b506122e7806100206000396000f3fe608060405234801561001057600080fd5b50600436106101165760003560e01c806370a08231116100a257806395d89b411161007157806395d89b41146102cf578063a457c2d7146102ed578063a9059cbb1461031d578063dd62ed3e1461034d578063f2fde38b1461037d57610116565b806370a082311461025b578063715018a61461028b57806379cc6790146102955780638da5cb5b146102b157610116565b8063313ce567116100e9578063313ce567146101b757806339509351146101d557806342966c68146102055780634cd88b76146102215780635c975abb1461023d57610116565b806306fdde031461011b578063095ea7b31461013957806318160ddd1461016957806323b872dd14610187575b600080fd5b610123610399565b6040516101309190611a40565b60405180910390f35b610153600480360381019061014e91906116fd565b61042b565b6040516101609190611a25565b60405180910390f35b61017161044e565b60405161017e9190611c02565b60405180910390f35b6101a1600480360381019061019c91906116ae565b610458565b6040516101ae9190611a25565b60405180910390f35b6101bf610487565b6040516101cc9190611c1d565b60405180910390f35b6101ef60048036038101906101ea91906116fd565b610490565b6040516101fc9190611a25565b60405180910390f35b61021f600480360381019061021a91906117a5565b61053a565b005b61023b60048036038101906102369190611739565b61054e565b005b610245610656565b6040516102529190611a25565b60405180910390f35b61027560048036038101906102709190611649565b61066d565b6040516102829190611c02565b60405180910390f35b6102936106b6565b005b6102af60048036038101906102aa91906116fd565b61073e565b005b6102b961075e565b6040516102c69190611a0a565b60405180910390f35b6102d7610788565b6040516102e49190611a40565b60405180910390f35b610307600480360381019061030291906116fd565b61081a565b6040516103149190611a25565b60405180910390f35b610337600480360381019061033291906116fd565b610904565b6040516103449190611a25565b60405180910390f35b61036760048036038101906103629190611672565b610927565b6040516103749190611c02565b60405180910390f35b61039760048036038101906103929190611649565b6109ae565b005b6060603680546103a890611dcb565b80601f01602080910402602001604051908101604052809291908181526020018280546103d490611dcb565b80156104215780601f106103f657610100808354040283529160200191610421565b820191906000526020600020905b81548152906001019060200180831161040457829003601f168201915b5050505050905090565b600080610436610aa6565b9050610443818585610aae565b600191505092915050565b6000603554905090565b600080610463610aa6565b9050610470858285610c79565b61047b858585610d05565b60019150509392505050565b60006012905090565b60008061049b610aa6565b905061052f818585603460008673ffffffffffffffffffffffffffffffffffffffff1673ffffffffffffffffffffffffffffffffffffffff16815260200190815260200160002060008973ffffffffffffffffffffffffffffffffffffffff1673ffffffffffffffffffffffffffffffffffffffff1681526020019081526020016000205461052a9190611caa565b610aae565b600191505092915050565b61054b610545610aa6565b82610f89565b50565b600060019054906101000a900460ff166105765760008054906101000a900460ff161561057f565b61057e611162565b5b6105be576040517f08c379a00000000000000000000000000000000000000000000000000000000081526004016105b590611b22565b60405180910390fd5b60008060019054906101000a900460ff16159050801561060e576001600060016101000a81548160ff02191690831515021790555060016000806101000a81548160ff0219169083151502179055505b6106188383611173565b6106206111d0565b610628611221565b61063061127a565b80156106515760008060016101000a81548160ff0219169083151502179055505b505050565b6000609760009054906101000a900460ff16905090565b6000603360008373ffffffffffffffffffffffffffffffffffffffff1673ffffffffffffffffffffffffffffffffffffffff168152602001908152602001600020549050919050565b6106be610aa6565b73ffffffffffffffffffffffffffffffffffffffff166106dc61075e565b73ffffffffffffffffffffffffffffffffffffffff1614610732576040517f08c379a000000000000000000000000000000000000000000000000000000000815260040161072990611b42565b60405180910390fd5b61073c60006112d3565b565b6107508261074a610aa6565b83610c79565b61075a8282610f89565b5050565b600060c960009054906101000a900473ffffffffffffffffffffffffffffffffffffffff16905090565b60606037805461079790611dcb565b80601f01602080910402602001604051908101604052809291908181526020018280546107c390611dcb565b80156108105780601f106107e557610100808354040283529160200191610810565b820191906000526020600020905b8154815290600101906020018083116107f357829003601f168201915b5050505050905090565b600080610825610aa6565b90506000603460008373ffffffffffffffffffffffffffffffffffffffff1673ffffffffffffffffffffffffffffffffffffffff16815260200190815260200160002060008673ffffffffffffffffffffffffffffffffffffffff1673ffffffffffffffffffffffffffffffffffffffff168152602001908152602001600020549050838110156108eb576040517f08c379a00000000000000000000000000000000000000000000000000000000081526004016108e290611be2565b60405180910390fd5b6108f88286868403610aae565b60019250505092915050565b60008061090f610aa6565b905061091c818585610d05565b600191505092915050565b6000603460008473ffffffffffffffffffffffffffffffffffffffff1673ffffffffffffffffffffffffffffffffffffffff16815260200190815260200160002060008373ffffffffffffffffffffffffffffffffffffffff1673ffffffffffffffffffffffffffffffffffffffff16815260200190815260200160002054905092915050565b6109b6610aa6565b73ffffffffffffffffffffffffffffffffffffffff166109d461075e565b73ffffffffffffffffffffffffffffffffffffffff1614610a2a576040517f08c379a0000000000000000000000000000000000000000000000000000000008152600401610a2190611b42565b60405180910390fd5b600073ffffffffffffffffffffffffffffffffffffffff168173ffffffffffffffffffffffffffffffffffffffff161415610a9a576040517f08c379a0000000000000000000000000000000000000000000000000000000008152600401610a9190611aa2565b60405180910390fd5b610aa3816112d3565b50565b600033905090565b600073ffffffffffffffffffffffffffffffffffffffff168373ffffffffffffffffffffffffffffffffffffffff161415610b1e576040517f08c379a0000000000000000000000000000000000000000000000000000000008152600401610b1590611ba2565b60405180910390fd5b600073ffffffffffffffffffffffffffffffffffffffff168273ffffffffffffffffffffffffffffffffffffffff161415610b8e576040517f08c379a0000000000000000000000000000000000000000000000000000000008152600401610b8590611ac2565b60405180910390fd5b80603460008573ffffffffffffffffffffffffffffffffffffffff1673ffffffffffffffffffffffffffffffffffffffff16815260200190815260200160002060008473ffffffffffffffffffffffffffffffffffffffff1673ffffffffffffffffffffffffffffffffffffffff168152602001908152602001600020819055508173ffffffffffffffffffffffffffffffffffffffff168373ffffffffffffffffffffffffffffffffffffffff167f8c5be1e5ebec7d5bd14f71427d1e84f3dd0314c0f7b2291e5b200ac8c7c3b92583604051610c6c9190611c02565b60405180910390a3505050565b6000610c858484610927565b90507fffffffffffffffffffffffffffffffffffffffffffffffffffffffffffffffff8114610cff5781811015610cf1576040517f08c379a0000000000000000000000000000000000000000000000000000000008152600401610ce890611ae2565b60405180910390fd5b610cfe8484848403610aae565b5b50505050565b600073ffffffffffffffffffffffffffffffffffffffff168373ffffffffffffffffffffffffffffffffffffffff161415610d75576040517f08c379a0000000000000000000000000000000000000000000000000000000008152600401610d6c90611b82565b60405180910390fd5b600073ffffffffffffffffffffffffffffffffffffffff168273ffffffffffffffffffffffffffffffffffffffff161415610de5576040517f08c379a0000000000000000000000000000000000000000000000000000000008152600401610ddc90611a62565b60405180910390fd5b610df0838383611399565b6000603360008573ffffffffffffffffffffffffffffffffffffffff1673ffffffffffffffffffffffffffffffffffffffff16815260200190815260200160002054905081811015610e77576040517f08c379a0000000000000000000000000000000000000000000000000000000008152600401610e6e90611b02565b60405180910390fd5b818103603360008673ffffffffffffffffffffffffffffffffffffffff1673ffffffffffffffffffffffffffffffffffffffff1681526020019081526020016000208190555081603360008573ffffffffffffffffffffffffffffffffffffffff1673ffffffffffffffffffffffffffffffffffffffff1681526020019081526020016000206000828254610f0c9190611caa565b925050819055508273ffffffffffffffffffffffffffffffffffffffff168473ffffffffffffffffffffffffffffffffffffffff167fddf252ad1be2c89b69c2b068fc378daa952ba7f163c4a11628f55a4df523b3ef84604051610f709190611c02565b60405180910390a3610f8384848461139e565b50505050565b600073ffffffffffffffffffffffffffffffffffffffff168273ffffffffffffffffffffffffffffffffffffffff161415610ff9576040517f08c379a0000000000000000000000000000000000000000000000000000000008152600401610ff090611b62565b60405180910390fd5b61100582600083611399565b6000603360008473ffffffffffffffffffffffffffffffffffffffff1673ffffffffffffffffffffffffffffffffffffffff1681526020019081526020016000205490508181101561108c576040517f08c379a000000000000000000000000000000000000000000000000000000000815260040161108390611a82565b60405180910390fd5b818103603360008573ffffffffffffffffffffffffffffffffffffffff1673ffffffffffffffffffffffffffffffffffffffff1681526020019081526020016000208190555081603560008282546110e49190611d00565b92505081905550600073ffffffffffffffffffffffffffffffffffffffff168373ffffffffffffffffffffffffffffffffffffffff167fddf252ad1be2c89b69c2b068fc378daa952ba7f163c4a11628f55a4df523b3ef846040516111499190611c02565b60405180910390a361115d8360008461139e565b505050565b600061116d306113a3565b15905090565b600060019054906101000a900460ff166111c2576040517f08c379a00000000000000000000000000000000000000000000000000000000081526004016111b990611bc2565b60405180910390fd5b6111cc82826113c6565b5050565b600060019054906101000a900460ff1661121f576040517f08c379a000000000000000000000000000000000000000000000000000000000815260040161121690611bc2565b60405180910390fd5b565b600060019054906101000a900460ff16611270576040517f08c379a000000000000000000000000000000000000000000000000000000000815260040161126790611bc2565b60405180910390fd5b611278611447565b565b600060019054906101000a900460ff166112c9576040517f08c379a00000000000000000000000000000000000000000000000000000000081526004016112c090611bc2565b60405180910390fd5b6112d16114b3565b565b600060c960009054906101000a900473ffffffffffffffffffffffffffffffffffffffff1690508160c960006101000a81548173ffffffffffffffffffffffffffffffffffffffff021916908373ffffffffffffffffffffffffffffffffffffffff1602179055508173ffffffffffffffffffffffffffffffffffffffff168173ffffffffffffffffffffffffffffffffffffffff167f8be0079c531659141344cd1fd0a4f28419497f9722a3daafe3b4186f6b6457e060405160405180910390a35050565b505050565b505050565b6000808273ffffffffffffffffffffffffffffffffffffffff163b119050919050565b600060019054906101000a900460ff16611415576040517f08c379a000000000000000000000000000000000000000000000000000000000815260040161140c90611bc2565b60405180910390fd5b816036908051906020019061142b929190611514565b508060379080519060200190611442929190611514565b505050565b600060019054906101000a900460ff16611496576040517f08c379a000000000000000000000000000000000000000000000000000000000815260040161148d90611bc2565b60405180910390fd5b6000609760006101000a81548160ff021916908315150217905550565b600060019054906101000a900460ff16611502576040517f08c379a00000000000000000000000000000000000000000000000000000000081526004016114f990611bc2565b60405180910390fd5b61151261150d610aa6565b6112d3565b565b82805461152090611dcb565b90600052602060002090601f0160209004810192826115425760008555611589565b82601f1061155b57805160ff1916838001178555611589565b82800160010185558215611589579182015b8281111561158857825182559160200191906001019061156d565b5b509050611596919061159a565b5090565b5b808211156115b357600081600090555060010161159b565b5090565b60006115ca6115c584611c5d565b611c38565b9050828152602081018484840111156115e257600080fd5b6115ed848285611d89565b509392505050565b60008135905061160481612283565b92915050565b600082601f83011261161b57600080fd5b813561162b8482602086016115b7565b91505092915050565b6000813590506116438161229a565b92915050565b60006020828403121561165b57600080fd5b6000611669848285016115f5565b91505092915050565b6000806040838503121561168557600080fd5b6000611693858286016115f5565b92505060206116a4858286016115f5565b9150509250929050565b6000806000606084860312156116c357600080fd5b60006116d1868287016115f5565b93505060206116e2868287016115f5565b92505060406116f386828701611634565b9150509250925092565b6000806040838503121561171057600080fd5b600061171e858286016115f5565b925050602061172f85828601611634565b9150509250929050565b6000806040838503121561174c57600080fd5b600083013567ffffffffffffffff81111561176657600080fd5b6117728582860161160a565b925050602083013567ffffffffffffffff81111561178f57600080fd5b61179b8582860161160a565b9150509250929050565b6000602082840312156117b757600080fd5b60006117c584828501611634565b91505092915050565b6117d781611d34565b82525050565b6117e681611d46565b82525050565b60006117f782611c8e565b6118018185611c99565b9350611811818560208601611d98565b61181a81611ebb565b840191505092915050565b6000611832602383611c99565b915061183d82611ecc565b604082019050919050565b6000611855602283611c99565b915061186082611f1b565b604082019050919050565b6000611878602683611c99565b915061188382611f6a565b604082019050919050565b600061189b602283611c99565b91506118a682611fb9565b604082019050919050565b60006118be601d83611c99565b91506118c982612008565b602082019050919050565b60006118e1602683611c99565b91506118ec82612031565b604082019050919050565b6000611904602e83611c99565b915061190f82612080565b604082019050919050565b6000611927602083611c99565b9150611932826120cf565b602082019050919050565b600061194a602183611c99565b9150611955826120f8565b604082019050919050565b600061196d602583611c99565b915061197882612147565b604082019050919050565b6000611990602483611c99565b915061199b82612196565b604082019050919050565b60006119b3602b83611c99565b91506119be826121e5565b604082019050919050565b60006119d6602583611c99565b91506119e182612234565b604082019050919050565b6119f581611d72565b82525050565b611a0481611d7c565b82525050565b6000602082019050611a1f60008301846117ce565b92915050565b6000602082019050611a3a60008301846117dd565b92915050565b60006020820190508181036000830152611a5a81846117ec565b905092915050565b60006020820190508181036000830152611a7b81611825565b9050919050565b60006020820190508181036000830152611a9b81611848565b9050919050565b60006020820190508181036000830152611abb8161186b565b9050919050565b60006020820190508181036000830152611adb8161188e565b9050919050565b60006020820190508181036000830152611afb816118b1565b9050919050565b60006020820190508181036000830152611b1b816118d4565b9050919050565b60006020820190508181036000830152611b3b816118f7565b9050919050565b60006020820190508181036000830152611b5b8161191a565b9050919050565b60006020820190508181036000830152611b7b8161193d565b9050919050565b60006020820190508181036000830152611b9b81611960565b9050919050565b60006020820190508181036000830152611bbb81611983565b9050919050565b60006020820190508181036000830152611bdb816119a6565b9050919050565b60006020820190508181036000830152611bfb816119c9565b9050919050565b6000602082019050611c1760008301846119ec565b92915050565b6000602082019050611c3260008301846119fb565b92915050565b6000611c42611c53565b9050611c4e8282611dfd565b919050565b6000604051905090565b600067ffffffffffffffff821115611c7857611c77611e8c565b5b611c8182611ebb565b9050602081019050919050565b600081519050919050565b600082825260208201905092915050565b6000611cb582611d72565b9150611cc083611d72565b9250827fffffffffffffffffffffffffffffffffffffffffffffffffffffffffffffffff03821115611cf557611cf4611e2e565b5b828201905092915050565b6000611d0b82611d72565b9150611d1683611d72565b925082821015611d2957611d28611e2e565b5b828203905092915050565b6000611d3f82611d52565b9050919050565b60008115159050919050565b600073ffffffffffffffffffffffffffffffffffffffff82169050919050565b6000819050919050565b600060ff82169050919050565b82818337600083830152505050565b60005b83811015611db6578082015181840152602081019050611d9b565b83811115611dc5576000848401525b50505050565b60006002820490506001821680611de357607f821691505b60208210811415611df757611df6611e5d565b5b50919050565b611e0682611ebb565b810181811067ffffffffffffffff82111715611e2557611e24611e8c565b5b80604052505050565b7f4e487b7100000000000000000000000000000000000000000000000000000000600052601160045260246000fd5b7f4e487b7100000000000000000000000000000000000000000000000000000000600052602260045260246000fd5b7f4e487b7100000000000000000000000000000000000000000000000000000000600052604160045260246000fd5b6000601f19601f8301169050919050565b7f45524332303a207472616e7366657220746f20746865207a65726f206164647260008201527f6573730000000000000000000000000000000000000000000000000000000000602082015250565b7f45524332303a206275726e20616d6f756e7420657863656564732062616c616e60008201527f6365000000000000000000000000000000000000000000000000000000000000602082015250565b7f4f776e61626c653a206e6577206f776e657220697320746865207a65726f206160008201527f6464726573730000000000000000000000000000000000000000000000000000602082015250565b7f45524332303a20617070726f766520746f20746865207a65726f20616464726560008201527f7373000000000000000000000000000000000000000000000000000000000000602082015250565b7f45524332303a20696e73756666696369656e7420616c6c6f77616e6365000000600082015250565b7f45524332303a207472616e7366657220616d6f756e742065786365656473206260008201527f616c616e63650000000000000000000000000000000000000000000000000000602082015250565b7f496e697469616c697a61626c653a20636f6e747261637420697320616c72656160008201527f647920696e697469616c697a6564000000000000000000000000000000000000602082015250565b7f4f776e61626c653a2063616c6c6572206973206e6f7420746865206f776e6572600082015250565b7f45524332303a206275726e2066726f6d20746865207a65726f2061646472657360008201527f7300000000000000000000000000000000000000000000000000000000000000602082015250565b7f45524332303a207472616e736665722066726f6d20746865207a65726f20616460008201527f6472657373000000000000000000000000000000000000000000000000000000602082015250565b7f45524332303a20617070726f76652066726f6d20746865207a65726f2061646460008201527f7265737300000000000000000000000000000000000000000000000000000000602082015250565b7f496e697469616c697a61626c653a20636f6e7472616374206973206e6f74206960008201527f6e697469616c697a696e67000000000000000000000000000000000000000000602082015250565b7f45524332303a2064656372656173656420616c6c6f77616e63652062656c6f7760008201527f207a65726f000000000000000000000000000000000000000000000000000000602082015250565b61228c81611d34565b811461229757600080fd5b50565b6122a381611d72565b81146122ae57600080fd5b5056fea2646970667358221220b6285c4a75618280ac1285bb00145fed06b4f72b9e1d1a381e75ee5ecd64802864736f6c63430008040033",
  "linkReferences": {},
  "deployedLinkReferences": {}
}