{
  "_format": "hh-sol-artifact-1",
  "contractName": "TokenRV2",
  "sourceName": "contracts/TokenRV2.sol",
  "abi": [
    {
      "anonymous": false,
      "inputs": [
        {
          "indexed": true,
          "internalType": "address",
          "name": "owner",
          "type": "address"
        },
        {
          "indexed": true,
          "internalType": "address",
          "name": "spender",
          "type": "address"
        },
        {
          "indexed": false,
          "internalType": "uint256",
          "name": "value",
          "type": "uint256"
        }
      ],
      "name": "Approval",
      "type": "event"
    },
    {
      "anonymous": false,
      "inputs": [
        {
          "indexed": true,
          "internalType": "address",
          "name": "previousOwner",
          "type": "address"
        },
        {
          "indexed": true,
          "internalType": "address",
          "name": "newOwner",
          "type": "address"
        }
      ],
      "name": "OwnershipTransferred",
      "type": "event"
    },
    {
      "anonymous": false,
      "inputs": [
        {
          "indexed": false,
          "internalType": "address",
          "name": "account",
          "type": "address"
        }
      ],
      "name": "Paused",
      "type": "event"
    },
    {
      "anonymous": false,
      "inputs": [
        {
          "indexed": true,
          "internalType": "address",
          "name": "from",
          "type": "address"
        },
        {
          "indexed": true,
          "internalType": "address",
          "name": "to",
          "type": "address"
        },
        {
          "indexed": false,
          "internalType": "uint256",
          "name": "value",
          "type": "uint256"
        }
      ],
      "name": "Transfer",
      "type": "event"
    },
    {
      "anonymous": false,
      "inputs": [
        {
          "indexed": false,
          "internalType": "address",
          "name": "account",
          "type": "address"
        }
      ],
      "name": "Unpaused",
      "type": "event"
    },
    {
      "inputs": [
        {
          "internalType": "address",
          "name": "owner",
          "type": "address"
        },
        {
          "internalType": "address",
          "name": "spender",
          "type": "address"
        }
      ],
      "name": "allowance",
      "outputs": [
        {
          "internalType": "uint256",
          "name": "",
          "type": "uint256"
        }
      ],
      "stateMutability": "view",
      "type": "function"
    },
    {
      "inputs": [
        {
          "internalType": "address",
          "name": "spender",
          "type": "address"
        },
        {
          "internalType": "uint256",
          "name": "amount",
          "type": "uint256"
        }
      ],
      "name": "approve",
      "outputs": [
        {
          "internalType": "bool",
          "name": "",
          "type": "bool"
        }
      ],
      "stateMutability": "nonpayable",
      "type": "function"
    },
    {
      "inputs": [
        {
          "internalType": "address",
          "name": "account",
          "type": "address"
        }
      ],
      "name": "balanceOf",
      "outputs": [
        {
          "internalType": "uint256",
          "name": "",
          "type": "uint256"
        }
      ],
      "stateMutability": "view",
      "type": "function"
    },
    {
      "inputs": [
        {
          "internalType": "uint256",
          "name": "amount",
          "type": "uint256"
        }
      ],
      "name": "burn",
      "outputs": [],
      "stateMutability": "nonpayable",
      "type": "function"
    },
    {
      "inputs": [
        {
          "internalType": "address",
          "name": "account",
          "type": "address"
        },
        {
          "internalType": "uint256",
          "name": "amount",
          "type": "uint256"
        }
      ],
      "name": "burnFrom",
      "outputs": [],
      "stateMutability": "nonpayable",
      "type": "function"
    },
    {
      "inputs": [],
      "name": "decimals",
      "outputs": [
        {
          "internalType": "uint8",
          "name": "",
          "type": "uint8"
        }
      ],
      "stateMutability": "view",
      "type": "function"
    },
    {
      "inputs": [
        {
          "internalType": "address",
          "name": "spender",
          "type": "address"
        },
        {
          "internalType": "uint256",
          "name": "subtractedValue",
          "type": "uint256"
        }
      ],
      "name": "decreaseAllowance",
      "outputs": [
        {
          "internalType": "bool",
          "name": "",
          "type": "bool"
        }
      ],
      "stateMutability": "nonpayable",
      "type": "function"
    },
    {
      "inputs": [
        {
          "internalType": "address",
          "name": "spender",
          "type": "address"
        },
        {
          "internalType": "uint256",
          "name": "addedValue",
          "type": "uint256"
        }
      ],
      "name": "increaseAllowance",
      "outputs": [
        {
          "internalType": "bool",
          "name": "",
          "type": "bool"
        }
      ],
      "stateMutability": "nonpayable",
      "type": "function"
    },
    {
      "inputs": [
        {
          "internalType": "string",
          "name": "_name",
          "type": "string"
        },
        {
          "internalType": "string",
          "name": "_symbol",
          "type": "string"
        }
      ],
      "name": "initialize",
      "outputs": [],
      "stateMutability": "nonpayable",
      "type": "function"
    },
    {
      "inputs": [],
      "name": "name",
      "outputs": [
        {
          "internalType": "string",
          "name": "",
          "type": "string"
        }
      ],
      "stateMutability": "view",
      "type": "function"
    },
    {
      "inputs": [],
      "name": "owner",
      "outputs": [
        {
          "internalType": "address",
          "name": "",
          "type": "address"
        }
      ],
      "stateMutability": "view",
      "type": "function"
    },
    {
      "inputs": [],
      "name": "paused",
      "outputs": [
        {
          "internalType": "bool",
          "name": "",
          "type": "bool"
        }
      ],
      "stateMutability": "view",
      "type": "function"
    },
    {
      "inputs": [],
      "name": "renounceOwnership",
      "outputs": [],
      "stateMutability": "nonpayable",
      "type": "function"
    },
    {
      "inputs": [],
      "name": "sayHello",
      "outputs": [
        {
          "internalType": "string",
          "name": "",
          "type": "string"
        }
      ],
      "stateMutability": "pure",
      "type": "function"
    },
    {
      "inputs": [],
      "name": "symbol",
      "outputs": [
        {
          "internalType": "string",
          "name": "",
          "type": "string"
        }
      ],
      "stateMutability": "view",
      "type": "function"
    },
    {
      "inputs": [],
      "name": "totalSupply",
      "outputs": [
        {
          "internalType": "uint256",
          "name": "",
          "type": "uint256"
        }
      ],
      "stateMutability": "view",
      "type": "function"
    },
    {
      "inputs": [
        {
          "internalType": "address",
          "name": "to",
          "type": "address"
        },
        {
          "internalType": "uint256",
          "name": "amount",
          "type": "uint256"
        }
      ],
      "name": "transfer",
      "outputs": [
        {
          "internalType": "bool",
          "name": "",
          "type": "bool"
        }
      ],
      "stateMutability": "nonpayable",
      "type": "function"
    },
    {
      "inputs": [
        {
          "internalType": "address",
          "name": "from",
          "type": "address"
        },
        {
          "internalType": "address",
          "name": "to",
          "type": "address"
        },
        {
          "internalType": "uint256",
          "name": "amount",
          "type": "uint256"
        }
      ],
      "name": "transferFrom",
      "outputs": [
        {
          "internalType": "bool",
          "name": "",
          "type": "bool"
        }
      ],
      "stateMutability": "nonpayable",
      "type": "function"
    },
    {
      "inputs": [
        {
          "internalType": "address",
          "name": "newOwner",
          "type": "address"
        }
      ],
      "name": "transferOwnership",
      "outputs": [],
      "stateMutability": "nonpayable",
      "type": "function"
    }
  ],
  "bytecode": "0x608060405234801561001057600080fd5b5061234d806100206000396000f3fe608060405234801561001057600080fd5b50600436106101215760003560e01c806370a08231116100ad578063a457c2d711610071578063a457c2d7146102f8578063a9059cbb14610328578063dd62ed3e14610358578063ef5fb05b14610388578063f2fde38b146103a657610121565b806370a0823114610266578063715018a61461029657806379cc6790146102a05780638da5cb5b146102bc57806395d89b41146102da57610121565b8063313ce567116100f4578063313ce567146101c257806339509351146101e057806342966c68146102105780634cd88b761461022c5780635c975abb1461024857610121565b806306fdde0314610126578063095ea7b31461014457806318160ddd1461017457806323b872dd14610192575b600080fd5b61012e6103c2565b60405161013b9190611aa6565b60405180910390f35b61015e60048036038101906101599190611763565b610454565b60405161016b9190611a8b565b60405180910390f35b61017c610477565b6040516101899190611c68565b60405180910390f35b6101ac60048036038101906101a79190611714565b610481565b6040516101b99190611a8b565b60405180910390f35b6101ca6104b0565b6040516101d79190611c83565b60405180910390f35b6101fa60048036038101906101f59190611763565b6104b9565b6040516102079190611a8b565b60405180910390f35b61022a6004803603810190610225919061180b565b610563565b005b6102466004803603810190610241919061179f565b610577565b005b61025061067f565b60405161025d9190611a8b565b60405180910390f35b610280600480360381019061027b91906116af565b610696565b60405161028d9190611c68565b60405180910390f35b61029e6106df565b005b6102ba60048036038101906102b59190611763565b610767565b005b6102c4610787565b6040516102d19190611a70565b60405180910390f35b6102e26107b1565b6040516102ef9190611aa6565b60405180910390f35b610312600480360381019061030d9190611763565b610843565b60405161031f9190611a8b565b60405180910390f35b610342600480360381019061033d9190611763565b61092d565b60405161034f9190611a8b565b60405180910390f35b610372600480360381019061036d91906116d8565b610950565b60405161037f9190611c68565b60405180910390f35b6103906109d7565b60405161039d9190611aa6565b60405180910390f35b6103c060048036038101906103bb91906116af565b610a14565b005b6060603680546103d190611e31565b80601f01602080910402602001604051908101604052809291908181526020018280546103fd90611e31565b801561044a5780601f1061041f5761010080835404028352916020019161044a565b820191906000526020600020905b81548152906001019060200180831161042d57829003601f168201915b5050505050905090565b60008061045f610b0c565b905061046c818585610b14565b600191505092915050565b6000603554905090565b60008061048c610b0c565b9050610499858285610cdf565b6104a4858585610d6b565b60019150509392505050565b60006012905090565b6000806104c4610b0c565b9050610558818585603460008673ffffffffffffffffffffffffffffffffffffffff1673ffffffffffffffffffffffffffffffffffffffff16815260200190815260200160002060008973ffffffffffffffffffffffffffffffffffffffff1673ffffffffffffffffffffffffffffffffffffffff168152602001908152602001600020546105539190611d10565b610b14565b600191505092915050565b61057461056e610b0c565b82610fef565b50565b600060019054906101000a900460ff1661059f5760008054906101000a900460ff16156105a8565b6105a76111c8565b5b6105e7576040517f08c379a00000000000000000000000000000000000000000000000000000000081526004016105de90611b88565b60405180910390fd5b60008060019054906101000a900460ff161590508015610637576001600060016101000a81548160ff02191690831515021790555060016000806101000a81548160ff0219169083151502179055505b61064183836111d9565b610649611236565b610651611287565b6106596112e0565b801561067a5760008060016101000a81548160ff0219169083151502179055505b505050565b6000609760009054906101000a900460ff16905090565b6000603360008373ffffffffffffffffffffffffffffffffffffffff1673ffffffffffffffffffffffffffffffffffffffff168152602001908152602001600020549050919050565b6106e7610b0c565b73ffffffffffffffffffffffffffffffffffffffff16610705610787565b73ffffffffffffffffffffffffffffffffffffffff161461075b576040517f08c379a000000000000000000000000000000000000000000000000000000000815260040161075290611ba8565b60405180910390fd5b6107656000611339565b565b61077982610773610b0c565b83610cdf565b6107838282610fef565b5050565b600060c960009054906101000a900473ffffffffffffffffffffffffffffffffffffffff16905090565b6060603780546107c090611e31565b80601f01602080910402602001604051908101604052809291908181526020018280546107ec90611e31565b80156108395780601f1061080e57610100808354040283529160200191610839565b820191906000526020600020905b81548152906001019060200180831161081c57829003601f168201915b5050505050905090565b60008061084e610b0c565b90506000603460008373ffffffffffffffffffffffffffffffffffffffff1673ffffffffffffffffffffffffffffffffffffffff16815260200190815260200160002060008673ffffffffffffffffffffffffffffffffffffffff1673ffffffffffffffffffffffffffffffffffffffff16815260200190815260200160002054905083811015610914576040517f08c379a000000000000000000000000000000000000000000000000000000000815260040161090b90611c48565b60405180910390fd5b6109218286868403610b14565b60019250505092915050565b600080610938610b0c565b9050610945818585610d6b565b600191505092915050565b6000603460008473ffffffffffffffffffffffffffffffffffffffff1673ffffffffffffffffffffffffffffffffffffffff16815260200190815260200160002060008373ffffffffffffffffffffffffffffffffffffffff1673ffffffffffffffffffffffffffffffffffffffff16815260200190815260200160002054905092915050565b60606040518060400160405280600581526020017f48656c6c6f000000000000000000000000000000000000000000000000000000815250905090565b610a1c610b0c565b73ffffffffffffffffffffffffffffffffffffffff16610a3a610787565b73ffffffffffffffffffffffffffffffffffffffff1614610a90576040517f08c379a0000000000000000000000000000000000000000000000000000000008152600401610a8790611ba8565b60405180910390fd5b600073ffffffffffffffffffffffffffffffffffffffff168173ffffffffffffffffffffffffffffffffffffffff161415610b00576040517f08c379a0000000000000000000000000000000000000000000000000000000008152600401610af790611b08565b60405180910390fd5b610b0981611339565b50565b600033905090565b600073ffffffffffffffffffffffffffffffffffffffff168373ffffffffffffffffffffffffffffffffffffffff161415610b84576040517f08c379a0000000000000000000000000000000000000000000000000000000008152600401610b7b90611c08565b60405180910390fd5b600073ffffffffffffffffffffffffffffffffffffffff168273ffffffffffffffffffffffffffffffffffffffff161415610bf4576040517f08c379a0000000000000000000000000000000000000000000000000000000008152600401610beb90611b28565b60405180910390fd5b80603460008573ffffffffffffffffffffffffffffffffffffffff1673ffffffffffffffffffffffffffffffffffffffff16815260200190815260200160002060008473ffffffffffffffffffffffffffffffffffffffff1673ffffffffffffffffffffffffffffffffffffffff168152602001908152602001600020819055508173ffffffffffffffffffffffffffffffffffffffff168373ffffffffffffffffffffffffffffffffffffffff167f8c5be1e5ebec7d5bd14f71427d1e84f3dd0314c0f7b2291e5b200ac8c7c3b92583604051610cd29190611c68565b60405180910390a3505050565b6000610ceb8484610950565b90507fffffffffffffffffffffffffffffffffffffffffffffffffffffffffffffffff8114610d655781811015610d57576040517f08c379a0000000000000000000000000000000000000000000000000000000008152600401610d4e90611b48565b60405180910390fd5b610d648484848403610b14565b5b50505050565b600073ffffffffffffffffffffffffffffffffffffffff168373ffffffffffffffffffffffffffffffffffffffff161415610ddb576040517f08c379a0000000000000000000000000000000000000000000000000000000008152600401610dd290611be8565b60405180910390fd5b600073ffffffffffffffffffffffffffffffffffffffff168273ffffffffffffffffffffffffffffffffffffffff161415610e4b576040517f08c379a0000000000000000000000000000000000000000000000000000000008152600401610e4290611ac8565b60405180910390fd5b610e568383836113ff565b6000603360008573ffffffffffffffffffffffffffffffffffffffff1673ffffffffffffffffffffffffffffffffffffffff16815260200190815260200160002054905081811015610edd576040517f08c379a0000000000000000000000000000000000000000000000000000000008152600401610ed490611b68565b60405180910390fd5b818103603360008673ffffffffffffffffffffffffffffffffffffffff1673ffffffffffffffffffffffffffffffffffffffff1681526020019081526020016000208190555081603360008573ffffffffffffffffffffffffffffffffffffffff1673ffffffffffffffffffffffffffffffffffffffff1681526020019081526020016000206000828254610f729190611d10565b925050819055508273ffffffffffffffffffffffffffffffffffffffff168473ffffffffffffffffffffffffffffffffffffffff167fddf252ad1be2c89b69c2b068fc378daa952ba7f163c4a11628f55a4df523b3ef84604051610fd69190611c68565b60405180910390a3610fe9848484611404565b50505050565b600073ffffffffffffffffffffffffffffffffffffffff168273ffffffffffffffffffffffffffffffffffffffff16141561105f576040517f08c379a000000000000000000000000000000000000000000000000000000000815260040161105690611bc8565b60405180910390fd5b61106b826000836113ff565b6000603360008473ffffffffffffffffffffffffffffffffffffffff1673ffffffffffffffffffffffffffffffffffffffff168152602001908152602001600020549050818110156110f2576040517f08c379a00000000000000000000000000000000000000000000000000000000081526004016110e990611ae8565b60405180910390fd5b818103603360008573ffffffffffffffffffffffffffffffffffffffff1673ffffffffffffffffffffffffffffffffffffffff16815260200190815260200160002081905550816035600082825461114a9190611d66565b92505081905550600073ffffffffffffffffffffffffffffffffffffffff168373ffffffffffffffffffffffffffffffffffffffff167fddf252ad1be2c89b69c2b068fc378daa952ba7f163c4a11628f55a4df523b3ef846040516111af9190611c68565b60405180910390a36111c383600084611404565b505050565b60006111d330611409565b15905090565b600060019054906101000a900460ff16611228576040517f08c379a000000000000000000000000000000000000000000000000000000000815260040161121f90611c28565b60405180910390fd5b611232828261142c565b5050565b600060019054906101000a900460ff16611285576040517f08c379a000000000000000000000000000000000000000000000000000000000815260040161127c90611c28565b60405180910390fd5b565b600060019054906101000a900460ff166112d6576040517f08c379a00000000000000000000000000000000000000000000000000000000081526004016112cd90611c28565b60405180910390fd5b6112de6114ad565b565b600060019054906101000a900460ff1661132f576040517f08c379a000000000000000000000000000000000000000000000000000000000815260040161132690611c28565b60405180910390fd5b611337611519565b565b600060c960009054906101000a900473ffffffffffffffffffffffffffffffffffffffff1690508160c960006101000a81548173ffffffffffffffffffffffffffffffffffffffff021916908373ffffffffffffffffffffffffffffffffffffffff1602179055508173ffffffffffffffffffffffffffffffffffffffff168173ffffffffffffffffffffffffffffffffffffffff167f8be0079c531659141344cd1fd0a4f28419497f9722a3daafe3b4186f6b6457e060405160405180910390a35050565b505050565b505050565b6000808273ffffffffffffffffffffffffffffffffffffffff163b119050919050565b600060019054906101000a900460ff1661147b576040517f08c379a000000000000000000000000000000000000000000000000000000000815260040161147290611c28565b60405180910390fd5b816036908051906020019061149192919061157a565b5080603790805190602001906114a892919061157a565b505050565b600060019054906101000a900460ff166114fc576040517f08c379a00000000000000000000000000000000000000000000000000000000081526004016114f390611c28565b60405180910390fd5b6000609760006101000a81548160ff021916908315150217905550565b600060019054906101000a900460ff16611568576040517f08c379a000000000000000000000000000000000000000000000000000000000815260040161155f90611c28565b60405180910390fd5b611578611573610b0c565b611339565b565b82805461158690611e31565b90600052602060002090601f0160209004810192826115a857600085556115ef565b82601f106115c157805160ff19168380011785556115ef565b828001600101855582156115ef579182015b828111156115ee5782518255916020019190600101906115d3565b5b5090506115fc9190611600565b5090565b5b80821115611619576000816000905550600101611601565b5090565b600061163061162b84611cc3565b611c9e565b90508281526020810184848401111561164857600080fd5b611653848285611def565b509392505050565b60008135905061166a816122e9565b92915050565b600082601f83011261168157600080fd5b813561169184826020860161161d565b91505092915050565b6000813590506116a981612300565b92915050565b6000602082840312156116c157600080fd5b60006116cf8482850161165b565b91505092915050565b600080604083850312156116eb57600080fd5b60006116f98582860161165b565b925050602061170a8582860161165b565b9150509250929050565b60008060006060848603121561172957600080fd5b60006117378682870161165b565b93505060206117488682870161165b565b92505060406117598682870161169a565b9150509250925092565b6000806040838503121561177657600080fd5b60006117848582860161165b565b92505060206117958582860161169a565b9150509250929050565b600080604083850312156117b257600080fd5b600083013567ffffffffffffffff8111156117cc57600080fd5b6117d885828601611670565b925050602083013567ffffffffffffffff8111156117f557600080fd5b61180185828601611670565b9150509250929050565b60006020828403121561181d57600080fd5b600061182b8482850161169a565b91505092915050565b61183d81611d9a565b82525050565b61184c81611dac565b82525050565b600061185d82611cf4565b6118678185611cff565b9350611877818560208601611dfe565b61188081611f21565b840191505092915050565b6000611898602383611cff565b91506118a382611f32565b604082019050919050565b60006118bb602283611cff565b91506118c682611f81565b604082019050919050565b60006118de602683611cff565b91506118e982611fd0565b604082019050919050565b6000611901602283611cff565b915061190c8261201f565b604082019050919050565b6000611924601d83611cff565b915061192f8261206e565b602082019050919050565b6000611947602683611cff565b915061195282612097565b604082019050919050565b600061196a602e83611cff565b9150611975826120e6565b604082019050919050565b600061198d602083611cff565b915061199882612135565b602082019050919050565b60006119b0602183611cff565b91506119bb8261215e565b604082019050919050565b60006119d3602583611cff565b91506119de826121ad565b604082019050919050565b60006119f6602483611cff565b9150611a01826121fc565b604082019050919050565b6000611a19602b83611cff565b9150611a248261224b565b604082019050919050565b6000611a3c602583611cff565b9150611a478261229a565b604082019050919050565b611a5b81611dd8565b82525050565b611a6a81611de2565b82525050565b6000602082019050611a856000830184611834565b92915050565b6000602082019050611aa06000830184611843565b92915050565b60006020820190508181036000830152611ac08184611852565b905092915050565b60006020820190508181036000830152611ae18161188b565b9050919050565b60006020820190508181036000830152611b01816118ae565b9050919050565b60006020820190508181036000830152611b21816118d1565b9050919050565b60006020820190508181036000830152611b41816118f4565b9050919050565b60006020820190508181036000830152611b6181611917565b9050919050565b60006020820190508181036000830152611b818161193a565b9050919050565b60006020820190508181036000830152611ba18161195d565b9050919050565b60006020820190508181036000830152611bc181611980565b9050919050565b60006020820190508181036000830152611be1816119a3565b9050919050565b60006020820190508181036000830152611c01816119c6565b9050919050565b60006020820190508181036000830152611c21816119e9565b9050919050565b60006020820190508181036000830152611c4181611a0c565b9050919050565b60006020820190508181036000830152611c6181611a2f565b9050919050565b6000602082019050611c7d6000830184611a52565b92915050565b6000602082019050611c986000830184611a61565b92915050565b6000611ca8611cb9565b9050611cb48282611e63565b919050565b6000604051905090565b600067ffffffffffffffff821115611cde57611cdd611ef2565b5b611ce782611f21565b9050602081019050919050565b600081519050919050565b600082825260208201905092915050565b6000611d1b82611dd8565b9150611d2683611dd8565b9250827fffffffffffffffffffffffffffffffffffffffffffffffffffffffffffffffff03821115611d5b57611d5a611e94565b5b828201905092915050565b6000611d7182611dd8565b9150611d7c83611dd8565b925082821015611d8f57611d8e611e94565b5b828203905092915050565b6000611da582611db8565b9050919050565b60008115159050919050565b600073ffffffffffffffffffffffffffffffffffffffff82169050919050565b6000819050919050565b600060ff82169050919050565b82818337600083830152505050565b60005b83811015611e1c578082015181840152602081019050611e01565b83811115611e2b576000848401525b50505050565b60006002820490506001821680611e4957607f821691505b60208210811415611e5d57611e5c611ec3565b5b50919050565b611e6c82611f21565b810181811067ffffffffffffffff82111715611e8b57611e8a611ef2565b5b80604052505050565b7f4e487b7100000000000000000000000000000000000000000000000000000000600052601160045260246000fd5b7f4e487b7100000000000000000000000000000000000000000000000000000000600052602260045260246000fd5b7f4e487b7100000000000000000000000000000000000000000000000000000000600052604160045260246000fd5b6000601f19601f8301169050919050565b7f45524332303a207472616e7366657220746f20746865207a65726f206164647260008201527f6573730000000000000000000000000000000000000000000000000000000000602082015250565b7f45524332303a206275726e20616d6f756e7420657863656564732062616c616e60008201527f6365000000000000000000000000000000000000000000000000000000000000602082015250565b7f4f776e61626c653a206e6577206f776e657220697320746865207a65726f206160008201527f6464726573730000000000000000000000000000000000000000000000000000602082015250565b7f45524332303a20617070726f766520746f20746865207a65726f20616464726560008201527f7373000000000000000000000000000000000000000000000000000000000000602082015250565b7f45524332303a20696e73756666696369656e7420616c6c6f77616e6365000000600082015250565b7f45524332303a207472616e7366657220616d6f756e742065786365656473206260008201527f616c616e63650000000000000000000000000000000000000000000000000000602082015250565b7f496e697469616c697a61626c653a20636f6e747261637420697320616c72656160008201527f647920696e697469616c697a6564000000000000000000000000000000000000602082015250565b7f4f776e61626c653a2063616c6c6572206973206e6f7420746865206f776e6572600082015250565b7f45524332303a206275726e2066726f6d20746865207a65726f2061646472657360008201527f7300000000000000000000000000000000000000000000000000000000000000602082015250565b7f45524332303a207472616e736665722066726f6d20746865207a65726f20616460008201527f6472657373000000000000000000000000000000000000000000000000000000602082015250565b7f45524332303a20617070726f76652066726f6d20746865207a65726f2061646460008201527f7265737300000000000000000000000000000000000000000000000000000000602082015250565b7f496e697469616c697a61626c653a20636f6e7472616374206973206e6f74206960008201527f6e697469616c697a696e67000000000000000000000000000000000000000000602082015250565b7f45524332303a2064656372656173656420616c6c6f77616e63652062656c6f7760008201527f207a65726f000000000000000000000000000000000000000000000000000000602082015250565b6122f281611d9a565b81146122fd57600080fd5b50565b61230981611dd8565b811461231457600080fd5b5056fea2646970667358221220304b1b029aefc76352379bc495b8e64f4209a4adfbafd68ffc6d3729f402a04064736f6c63430008040033",
  "linkReferences": {},
  "deployedLinkReferences": {}
}