{
  "_format": "hh-sol-artifact-1",
  "contractName": "TokenRV2",
  "sourceName": "contracts/TokenRV2.sol",
  "abi": [
    {
      "anonymous": false,
      "inputs": [
        {
          "indexed": true,
          "internalType": "address",
          "name": "owner",
          "type": "address"
        },
        {
          "indexed": true,
          "internalType": "address",
          "name": "spender",
          "type": "address"
        },
        {
          "indexed": false,
          "internalType": "uint256",
          "name": "value",
          "type": "uint256"
        }
      ],
      "name": "Approval",
      "type": "event"
    },
    {
      "anonymous": false,
      "inputs": [
        {
          "indexed": true,
          "internalType": "address",
          "name": "previousOwner",
          "type": "address"
        },
        {
          "indexed": true,
          "internalType": "address",
          "name": "newOwner",
          "type": "address"
        }
      ],
      "name": "OwnershipTransferred",
      "type": "event"
    },
    {
      "anonymous": false,
      "inputs": [
        {
          "indexed": false,
          "internalType": "address",
          "name": "account",
          "type": "address"
        }
      ],
      "name": "Paused",
      "type": "event"
    },
    {
      "anonymous": false,
      "inputs": [
        {
          "indexed": true,
          "internalType": "address",
          "name": "from",
          "type": "address"
        },
        {
          "indexed": true,
          "internalType": "address",
          "name": "to",
          "type": "address"
        },
        {
          "indexed": false,
          "internalType": "uint256",
          "name": "value",
          "type": "uint256"
        }
      ],
      "name": "Transfer",
      "type": "event"
    },
    {
      "anonymous": false,
      "inputs": [
        {
          "indexed": false,
          "internalType": "address",
          "name": "account",
          "type": "address"
        }
      ],
      "name": "Unpaused",
      "type": "event"
    },
    {
      "inputs": [
        {
          "internalType": "address",
          "name": "owner",
          "type": "address"
        },
        {
          "internalType": "address",
          "name": "spender",
          "type": "address"
        }
      ],
      "name": "allowance",
      "outputs": [
        {
          "internalType": "uint256",
          "name": "",
          "type": "uint256"
        }
      ],
      "stateMutability": "view",
      "type": "function"
    },
    {
      "inputs": [
        {
          "internalType": "address",
          "name": "spender",
          "type": "address"
        },
        {
          "internalType": "uint256",
          "name": "amount",
          "type": "uint256"
        }
      ],
      "name": "approve",
      "outputs": [
        {
          "internalType": "bool",
          "name": "",
          "type": "bool"
        }
      ],
      "stateMutability": "nonpayable",
      "type": "function"
    },
    {
      "inputs": [
        {
          "internalType": "address",
          "name": "account",
          "type": "address"
        }
      ],
      "name": "balanceOf",
      "outputs": [
        {
          "internalType": "uint256",
          "name": "",
          "type": "uint256"
        }
      ],
      "stateMutability": "view",
      "type": "function"
    },
    {
      "inputs": [
        {
          "internalType": "uint256",
          "name": "amount",
          "type": "uint256"
        }
      ],
      "name": "burn",
      "outputs": [],
      "stateMutability": "nonpayable",
      "type": "function"
    },
    {
      "inputs": [
        {
          "internalType": "address",
          "name": "account",
          "type": "address"
        },
        {
          "internalType": "uint256",
          "name": "amount",
          "type": "uint256"
        }
      ],
      "name": "burnFrom",
      "outputs": [],
      "stateMutability": "nonpayable",
      "type": "function"
    },
    {
      "inputs": [],
      "name": "decimals",
      "outputs": [
        {
          "internalType": "uint8",
          "name": "",
          "type": "uint8"
        }
      ],
      "stateMutability": "view",
      "type": "function"
    },
    {
      "inputs": [
        {
          "internalType": "address",
          "name": "spender",
          "type": "address"
        },
        {
          "internalType": "uint256",
          "name": "subtractedValue",
          "type": "uint256"
        }
      ],
      "name": "decreaseAllowance",
      "outputs": [
        {
          "internalType": "bool",
          "name": "",
          "type": "bool"
        }
      ],
      "stateMutability": "nonpayable",
      "type": "function"
    },
    {
      "inputs": [
        {
          "internalType": "address",
          "name": "spender",
          "type": "address"
        },
        {
          "internalType": "uint256",
          "name": "addedValue",
          "type": "uint256"
        }
      ],
      "name": "increaseAllowance",
      "outputs": [
        {
          "internalType": "bool",
          "name": "",
          "type": "bool"
        }
      ],
      "stateMutability": "nonpayable",
      "type": "function"
    },
    {
      "inputs": [
        {
          "internalType": "string",
          "name": "_name",
          "type": "string"
        },
        {
          "internalType": "string",
          "name": "_symbol",
          "type": "string"
        }
      ],
      "name": "initialize",
      "outputs": [],
      "stateMutability": "nonpayable",
      "type": "function"
    },
    {
      "inputs": [],
      "name": "name",
      "outputs": [
        {
          "internalType": "string",
          "name": "",
          "type": "string"
        }
      ],
      "stateMutability": "view",
      "type": "function"
    },
    {
      "inputs": [],
      "name": "owner",
      "outputs": [
        {
          "internalType": "address",
          "name": "",
          "type": "address"
        }
      ],
      "stateMutability": "view",
      "type": "function"
    },
    {
      "inputs": [],
      "name": "paused",
      "outputs": [
        {
          "internalType": "bool",
          "name": "",
          "type": "bool"
        }
      ],
      "stateMutability": "view",
      "type": "function"
    },
    {
      "inputs": [],
      "name": "renounceOwnership",
      "outputs": [],
      "stateMutability": "nonpayable",
      "type": "function"
    },
    {
      "inputs": [],
      "name": "sayHello",
      "outputs": [
        {
          "internalType": "string",
          "name": "",
          "type": "string"
        }
      ],
      "stateMutability": "pure",
      "type": "function"
    },
    {
      "inputs": [],
      "name": "symbol",
      "outputs": [
        {
          "internalType": "string",
          "name": "",
          "type": "string"
        }
      ],
      "stateMutability": "view",
      "type": "function"
    },
    {
      "inputs": [],
      "name": "totalSupply",
      "outputs": [
        {
          "internalType": "uint256",
          "name": "",
          "type": "uint256"
        }
      ],
      "stateMutability": "view",
      "type": "function"
    },
    {
      "inputs": [
        {
          "internalType": "address",
          "name": "to",
          "type": "address"
        },
        {
          "internalType": "uint256",
          "name": "amount",
          "type": "uint256"
        }
      ],
      "name": "transfer",
      "outputs": [
        {
          "internalType": "bool",
          "name": "",
          "type": "bool"
        }
      ],
      "stateMutability": "nonpayable",
      "type": "function"
    },
    {
      "inputs": [
        {
          "internalType": "address",
          "name": "from",
          "type": "address"
        },
        {
          "internalType": "address",
          "name": "to",
          "type": "address"
        },
        {
          "internalType": "uint256",
          "name": "amount",
          "type": "uint256"
        }
      ],
      "name": "transferFrom",
      "outputs": [
        {
          "internalType": "bool",
          "name": "",
          "type": "bool"
        }
      ],
      "stateMutability": "nonpayable",
      "type": "function"
    },
    {
      "inputs": [
        {
          "internalType": "address",
          "name": "newOwner",
          "type": "address"
        }
      ],
      "name": "transferOwnership",
      "outputs": [],
      "stateMutability": "nonpayable",
      "type": "function"
    }
  ],
  "bytecode": "0x608060405234801561001057600080fd5b50612382806100206000396000f3fe608060405234801561001057600080fd5b50600436106101215760003560e01c806370a08231116100ad578063a457c2d711610071578063a457c2d7146102f8578063a9059cbb14610328578063dd62ed3e14610358578063ef5fb05b14610388578063f2fde38b146103a657610121565b806370a0823114610266578063715018a61461029657806379cc6790146102a05780638da5cb5b146102bc57806395d89b41146102da57610121565b8063313ce567116100f4578063313ce567146101c257806339509351146101e057806342966c68146102105780634cd88b761461022c5780635c975abb1461024857610121565b806306fdde0314610126578063095ea7b31461014457806318160ddd1461017457806323b872dd14610192575b600080fd5b61012e6103c2565b60405161013b91906116b0565b60405180910390f35b61015e6004803603810190610159919061177a565b610454565b60405161016b91906117d5565b60405180910390f35b61017c610477565b60405161018991906117ff565b60405180910390f35b6101ac60048036038101906101a7919061181a565b610481565b6040516101b991906117d5565b60405180910390f35b6101ca6104b0565b6040516101d79190611889565b60405180910390f35b6101fa60048036038101906101f5919061177a565b6104b9565b60405161020791906117d5565b60405180910390f35b61022a600480360381019061022591906118a4565b610563565b005b61024660048036038101906102419190611a06565b610577565b005b61025061067f565b60405161025d91906117d5565b60405180910390f35b610280600480360381019061027b9190611a7e565b610696565b60405161028d91906117ff565b60405180910390f35b61029e6106df565b005b6102ba60048036038101906102b5919061177a565b610767565b005b6102c4610787565b6040516102d19190611aba565b60405180910390f35b6102e26107b1565b6040516102ef91906116b0565b60405180910390f35b610312600480360381019061030d919061177a565b610843565b60405161031f91906117d5565b60405180910390f35b610342600480360381019061033d919061177a565b61092d565b60405161034f91906117d5565b60405180910390f35b610372600480360381019061036d9190611ad5565b610950565b60405161037f91906117ff565b60405180910390f35b6103906109d7565b60405161039d91906116b0565b60405180910390f35b6103c060048036038101906103bb9190611a7e565b610a14565b005b6060603680546103d190611b44565b80601f01602080910402602001604051908101604052809291908181526020018280546103fd90611b44565b801561044a5780601f1061041f5761010080835404028352916020019161044a565b820191906000526020600020905b81548152906001019060200180831161042d57829003601f168201915b5050505050905090565b60008061045f610b0b565b905061046c818585610b13565b600191505092915050565b6000603554905090565b60008061048c610b0b565b9050610499858285610cdc565b6104a4858585610d68565b60019150509392505050565b60006012905090565b6000806104c4610b0b565b9050610558818585603460008673ffffffffffffffffffffffffffffffffffffffff1673ffffffffffffffffffffffffffffffffffffffff16815260200190815260200160002060008973ffffffffffffffffffffffffffffffffffffffff1673ffffffffffffffffffffffffffffffffffffffff168152602001908152602001600020546105539190611ba4565b610b13565b600191505092915050565b61057461056e610b0b565b82610fea565b50565b600060019054906101000a900460ff1661059f5760008054906101000a900460ff16156105a8565b6105a76111c2565b5b6105e7576040517f08c379a00000000000000000000000000000000000000000000000000000000081526004016105de90611c6c565b60405180910390fd5b60008060019054906101000a900460ff161590508015610637576001600060016101000a81548160ff02191690831515021790555060016000806101000a81548160ff0219169083151502179055505b61064183836111d3565b610649611230565b610651611281565b6106596112da565b801561067a5760008060016101000a81548160ff0219169083151502179055505b505050565b6000609760009054906101000a900460ff16905090565b6000603360008373ffffffffffffffffffffffffffffffffffffffff1673ffffffffffffffffffffffffffffffffffffffff168152602001908152602001600020549050919050565b6106e7610b0b565b73ffffffffffffffffffffffffffffffffffffffff16610705610787565b73ffffffffffffffffffffffffffffffffffffffff161461075b576040517f08c379a000000000000000000000000000000000000000000000000000000000815260040161075290611cd8565b60405180910390fd5b6107656000611333565b565b61077982610773610b0b565b83610cdc565b6107838282610fea565b5050565b600060c960009054906101000a900473ffffffffffffffffffffffffffffffffffffffff16905090565b6060603780546107c090611b44565b80601f01602080910402602001604051908101604052809291908181526020018280546107ec90611b44565b80156108395780601f1061080e57610100808354040283529160200191610839565b820191906000526020600020905b81548152906001019060200180831161081c57829003601f168201915b5050505050905090565b60008061084e610b0b565b90506000603460008373ffffffffffffffffffffffffffffffffffffffff1673ffffffffffffffffffffffffffffffffffffffff16815260200190815260200160002060008673ffffffffffffffffffffffffffffffffffffffff1673ffffffffffffffffffffffffffffffffffffffff16815260200190815260200160002054905083811015610914576040517f08c379a000000000000000000000000000000000000000000000000000000000815260040161090b90611d6a565b60405180910390fd5b6109218286868403610b13565b60019250505092915050565b600080610938610b0b565b9050610945818585610d68565b600191505092915050565b6000603460008473ffffffffffffffffffffffffffffffffffffffff1673ffffffffffffffffffffffffffffffffffffffff16815260200190815260200160002060008373ffffffffffffffffffffffffffffffffffffffff1673ffffffffffffffffffffffffffffffffffffffff16815260200190815260200160002054905092915050565b60606040518060400160405280600581526020017f48656c6c6f000000000000000000000000000000000000000000000000000000815250905090565b610a1c610b0b565b73ffffffffffffffffffffffffffffffffffffffff16610a3a610787565b73ffffffffffffffffffffffffffffffffffffffff1614610a90576040517f08c379a0000000000000000000000000000000000000000000000000000000008152600401610a8790611cd8565b60405180910390fd5b600073ffffffffffffffffffffffffffffffffffffffff168173ffffffffffffffffffffffffffffffffffffffff1603610aff576040517f08c379a0000000000000000000000000000000000000000000000000000000008152600401610af690611dfc565b60405180910390fd5b610b0881611333565b50565b600033905090565b600073ffffffffffffffffffffffffffffffffffffffff168373ffffffffffffffffffffffffffffffffffffffff1603610b82576040517f08c379a0000000000000000000000000000000000000000000000000000000008152600401610b7990611e8e565b60405180910390fd5b600073ffffffffffffffffffffffffffffffffffffffff168273ffffffffffffffffffffffffffffffffffffffff1603610bf1576040517f08c379a0000000000000000000000000000000000000000000000000000000008152600401610be890611f20565b60405180910390fd5b80603460008573ffffffffffffffffffffffffffffffffffffffff1673ffffffffffffffffffffffffffffffffffffffff16815260200190815260200160002060008473ffffffffffffffffffffffffffffffffffffffff1673ffffffffffffffffffffffffffffffffffffffff168152602001908152602001600020819055508173ffffffffffffffffffffffffffffffffffffffff168373ffffffffffffffffffffffffffffffffffffffff167f8c5be1e5ebec7d5bd14f71427d1e84f3dd0314c0f7b2291e5b200ac8c7c3b92583604051610ccf91906117ff565b60405180910390a3505050565b6000610ce88484610950565b90507fffffffffffffffffffffffffffffffffffffffffffffffffffffffffffffffff8114610d625781811015610d54576040517f08c379a0000000000000000000000000000000000000000000000000000000008152600401610d4b90611f8c565b60405180910390fd5b610d618484848403610b13565b5b50505050565b600073ffffffffffffffffffffffffffffffffffffffff168373ffffffffffffffffffffffffffffffffffffffff1603610dd7576040517f08c379a0000000000000000000000000000000000000000000000000000000008152600401610dce9061201e565b60405180910390fd5b600073ffffffffffffffffffffffffffffffffffffffff168273ffffffffffffffffffffffffffffffffffffffff1603610e46576040517f08c379a0000000000000000000000000000000000000000000000000000000008152600401610e3d906120b0565b60405180910390fd5b610e518383836113f9565b6000603360008573ffffffffffffffffffffffffffffffffffffffff1673ffffffffffffffffffffffffffffffffffffffff16815260200190815260200160002054905081811015610ed8576040517f08c379a0000000000000000000000000000000000000000000000000000000008152600401610ecf90612142565b60405180910390fd5b818103603360008673ffffffffffffffffffffffffffffffffffffffff1673ffffffffffffffffffffffffffffffffffffffff1681526020019081526020016000208190555081603360008573ffffffffffffffffffffffffffffffffffffffff1673ffffffffffffffffffffffffffffffffffffffff1681526020019081526020016000206000828254610f6d9190611ba4565b925050819055508273ffffffffffffffffffffffffffffffffffffffff168473ffffffffffffffffffffffffffffffffffffffff167fddf252ad1be2c89b69c2b068fc378daa952ba7f163c4a11628f55a4df523b3ef84604051610fd191906117ff565b60405180910390a3610fe48484846113fe565b50505050565b600073ffffffffffffffffffffffffffffffffffffffff168273ffffffffffffffffffffffffffffffffffffffff1603611059576040517f08c379a0000000000000000000000000000000000000000000000000000000008152600401611050906121d4565b60405180910390fd5b611065826000836113f9565b6000603360008473ffffffffffffffffffffffffffffffffffffffff1673ffffffffffffffffffffffffffffffffffffffff168152602001908152602001600020549050818110156110ec576040517f08c379a00000000000000000000000000000000000000000000000000000000081526004016110e390612266565b60405180910390fd5b818103603360008573ffffffffffffffffffffffffffffffffffffffff1673ffffffffffffffffffffffffffffffffffffffff1681526020019081526020016000208190555081603560008282546111449190612286565b92505081905550600073ffffffffffffffffffffffffffffffffffffffff168373ffffffffffffffffffffffffffffffffffffffff167fddf252ad1be2c89b69c2b068fc378daa952ba7f163c4a11628f55a4df523b3ef846040516111a991906117ff565b60405180910390a36111bd836000846113fe565b505050565b60006111cd30611403565b15905090565b600060019054906101000a900460ff16611222576040517f08c379a00000000000000000000000000000000000000000000000000000000081526004016112199061232c565b60405180910390fd5b61122c8282611426565b5050565b600060019054906101000a900460ff1661127f576040517f08c379a00000000000000000000000000000000000000000000000000000000081526004016112769061232c565b60405180910390fd5b565b600060019054906101000a900460ff166112d0576040517f08c379a00000000000000000000000000000000000000000000000000000000081526004016112c79061232c565b60405180910390fd5b6112d86114a7565b565b600060019054906101000a900460ff16611329576040517f08c379a00000000000000000000000000000000000000000000000000000000081526004016113209061232c565b60405180910390fd5b611331611513565b565b600060c960009054906101000a900473ffffffffffffffffffffffffffffffffffffffff1690508160c960006101000a81548173ffffffffffffffffffffffffffffffffffffffff021916908373ffffffffffffffffffffffffffffffffffffffff1602179055508173ffffffffffffffffffffffffffffffffffffffff168173ffffffffffffffffffffffffffffffffffffffff167f8be0079c531659141344cd1fd0a4f28419497f9722a3daafe3b4186f6b6457e060405160405180910390a35050565b505050565b505050565b6000808273ffffffffffffffffffffffffffffffffffffffff163b119050919050565b600060019054906101000a900460ff16611475576040517f08c379a000000000000000000000000000000000000000000000000000000000815260040161146c9061232c565b60405180910390fd5b816036908051906020019061148b929190611574565b5080603790805190602001906114a2929190611574565b505050565b600060019054906101000a900460ff166114f6576040517f08c379a00000000000000000000000000000000000000000000000000000000081526004016114ed9061232c565b60405180910390fd5b6000609760006101000a81548160ff021916908315150217905550565b600060019054906101000a900460ff16611562576040517f08c379a00000000000000000000000000000000000000000000000000000000081526004016115599061232c565b60405180910390fd5b61157261156d610b0b565b611333565b565b82805461158090611b44565b90600052602060002090601f0160209004810192826115a257600085556115e9565b82601f106115bb57805160ff19168380011785556115e9565b828001600101855582156115e9579182015b828111156115e85782518255916020019190600101906115cd565b5b5090506115f691906115fa565b5090565b5b808211156116135760008160009055506001016115fb565b5090565b600081519050919050565b600082825260208201905092915050565b60005b83811015611651578082015181840152602081019050611636565b83811115611660576000848401525b50505050565b6000601f19601f8301169050919050565b600061168282611617565b61168c8185611622565b935061169c818560208601611633565b6116a581611666565b840191505092915050565b600060208201905081810360008301526116ca8184611677565b905092915050565b6000604051905090565b600080fd5b600080fd5b600073ffffffffffffffffffffffffffffffffffffffff82169050919050565b6000611711826116e6565b9050919050565b61172181611706565b811461172c57600080fd5b50565b60008135905061173e81611718565b92915050565b6000819050919050565b61175781611744565b811461176257600080fd5b50565b6000813590506117748161174e565b92915050565b60008060408385031215611791576117906116dc565b5b600061179f8582860161172f565b92505060206117b085828601611765565b9150509250929050565b60008115159050919050565b6117cf816117ba565b82525050565b60006020820190506117ea60008301846117c6565b92915050565b6117f981611744565b82525050565b600060208201905061181460008301846117f0565b92915050565b600080600060608486031215611833576118326116dc565b5b60006118418682870161172f565b93505060206118528682870161172f565b925050604061186386828701611765565b9150509250925092565b600060ff82169050919050565b6118838161186d565b82525050565b600060208201905061189e600083018461187a565b92915050565b6000602082840312156118ba576118b96116dc565b5b60006118c884828501611765565b91505092915050565b600080fd5b600080fd5b7f4e487b7100000000000000000000000000000000000000000000000000000000600052604160045260246000fd5b61191382611666565b810181811067ffffffffffffffff82111715611932576119316118db565b5b80604052505050565b60006119456116d2565b9050611951828261190a565b919050565b600067ffffffffffffffff821115611971576119706118db565b5b61197a82611666565b9050602081019050919050565b82818337600083830152505050565b60006119a96119a484611956565b61193b565b9050828152602081018484840111156119c5576119c46118d6565b5b6119d0848285611987565b509392505050565b600082601f8301126119ed576119ec6118d1565b5b81356119fd848260208601611996565b91505092915050565b60008060408385031215611a1d57611a1c6116dc565b5b600083013567ffffffffffffffff811115611a3b57611a3a6116e1565b5b611a47858286016119d8565b925050602083013567ffffffffffffffff811115611a6857611a676116e1565b5b611a74858286016119d8565b9150509250929050565b600060208284031215611a9457611a936116dc565b5b6000611aa28482850161172f565b91505092915050565b611ab481611706565b82525050565b6000602082019050611acf6000830184611aab565b92915050565b60008060408385031215611aec57611aeb6116dc565b5b6000611afa8582860161172f565b9250506020611b0b8582860161172f565b9150509250929050565b7f4e487b7100000000000000000000000000000000000000000000000000000000600052602260045260246000fd5b60006002820490506001821680611b5c57607f821691505b602082108103611b6f57611b6e611b15565b5b50919050565b7f4e487b7100000000000000000000000000000000000000000000000000000000600052601160045260246000fd5b6000611baf82611744565b9150611bba83611744565b9250827fffffffffffffffffffffffffffffffffffffffffffffffffffffffffffffffff03821115611bef57611bee611b75565b5b828201905092915050565b7f496e697469616c697a61626c653a20636f6e747261637420697320616c72656160008201527f647920696e697469616c697a6564000000000000000000000000000000000000602082015250565b6000611c56602e83611622565b9150611c6182611bfa565b604082019050919050565b60006020820190508181036000830152611c8581611c49565b9050919050565b7f4f776e61626c653a2063616c6c6572206973206e6f7420746865206f776e6572600082015250565b6000611cc2602083611622565b9150611ccd82611c8c565b602082019050919050565b60006020820190508181036000830152611cf181611cb5565b9050919050565b7f45524332303a2064656372656173656420616c6c6f77616e63652062656c6f7760008201527f207a65726f000000000000000000000000000000000000000000000000000000602082015250565b6000611d54602583611622565b9150611d5f82611cf8565b604082019050919050565b60006020820190508181036000830152611d8381611d47565b9050919050565b7f4f776e61626c653a206e6577206f776e657220697320746865207a65726f206160008201527f6464726573730000000000000000000000000000000000000000000000000000602082015250565b6000611de6602683611622565b9150611df182611d8a565b604082019050919050565b60006020820190508181036000830152611e1581611dd9565b9050919050565b7f45524332303a20617070726f76652066726f6d20746865207a65726f2061646460008201527f7265737300000000000000000000000000000000000000000000000000000000602082015250565b6000611e78602483611622565b9150611e8382611e1c565b604082019050919050565b60006020820190508181036000830152611ea781611e6b565b9050919050565b7f45524332303a20617070726f766520746f20746865207a65726f20616464726560008201527f7373000000000000000000000000000000000000000000000000000000000000602082015250565b6000611f0a602283611622565b9150611f1582611eae565b604082019050919050565b60006020820190508181036000830152611f3981611efd565b9050919050565b7f45524332303a20696e73756666696369656e7420616c6c6f77616e6365000000600082015250565b6000611f76601d83611622565b9150611f8182611f40565b602082019050919050565b60006020820190508181036000830152611fa581611f69565b9050919050565b7f45524332303a207472616e736665722066726f6d20746865207a65726f20616460008201527f6472657373000000000000000000000000000000000000000000000000000000602082015250565b6000612008602583611622565b915061201382611fac565b604082019050919050565b6000602082019050818103600083015261203781611ffb565b9050919050565b7f45524332303a207472616e7366657220746f20746865207a65726f206164647260008201527f6573730000000000000000000000000000000000000000000000000000000000602082015250565b600061209a602383611622565b91506120a58261203e565b604082019050919050565b600060208201905081810360008301526120c98161208d565b9050919050565b7f45524332303a207472616e7366657220616d6f756e742065786365656473206260008201527f616c616e63650000000000000000000000000000000000000000000000000000602082015250565b600061212c602683611622565b9150612137826120d0565b604082019050919050565b6000602082019050818103600083015261215b8161211f565b9050919050565b7f45524332303a206275726e2066726f6d20746865207a65726f2061646472657360008201527f7300000000000000000000000000000000000000000000000000000000000000602082015250565b60006121be602183611622565b91506121c982612162565b604082019050919050565b600060208201905081810360008301526121ed816121b1565b9050919050565b7f45524332303a206275726e20616d6f756e7420657863656564732062616c616e60008201527f6365000000000000000000000000000000000000000000000000000000000000602082015250565b6000612250602283611622565b915061225b826121f4565b604082019050919050565b6000602082019050818103600083015261227f81612243565b9050919050565b600061229182611744565b915061229c83611744565b9250828210156122af576122ae611b75565b5b828203905092915050565b7f496e697469616c697a61626c653a20636f6e7472616374206973206e6f74206960008201527f6e697469616c697a696e67000000000000000000000000000000000000000000602082015250565b6000612316602b83611622565b9150612321826122ba565b604082019050919050565b6000602082019050818103600083015261234581612309565b905091905056fea26469706673582212205834afdfe92520e07599d871ff8aa32517cce98b12aaac8baf30b1022b52dd2764736f6c634300080d0033",
  "linkReferences": {},
  "deployedLinkReferences": {}
}